:100000000C94FF000C941C010C941C010C941C011A
:100010000C941C010C941C010C941C010C941C01EC
:100020000C941C010C941C010C94271B0C94FB1BBE
:100030000C9457160C941C010C941C010C941C017C
:100040000C941C010C941C010C941C010C941C01BC
:100050000C941C010C94DE160C941C010C941C01D5
:100060000C941C010C941C010C941C010C941C019C
:100070000C941C010C941C010C941C010C941C018C
:100080000C941C010C941C010C941C010C941C017C
:100090000C941C010C941C010C941C010C941C016C
:1000A0000C941C010C941C010C941C01A900AA00C6
:1000B000AC00AE00AB001E001F002000210022009B
:1000C000230012036B006500790064006500630083
:1000D0006B00380000001A034D00610076006500D7
:1000E0007200690063006B00300031003900370096
:1000F00000000403090409023B00020100A0FA0900
:100100000400000103010100092111010001224046
:100110000007058103080001090401000103000034
:1001200000092111010001227B0007058203200044
:10013000011201000200000008764D31300100017B
:1001400002000105010902A10185020901A10005C2
:100150000919012908150025019508750181020575
:1001600001093009311581257F950275088106093D
:10017000381581257F950175088106050C0A38021E
:100180001581257F950175088106C0C0050109808C
:10019000A101850319012AB700150126B7009501B1
:1001A00075108100C0050C0901A101850419012AFF
:1001B000A002150126A002950175108100C005015D
:1001C0000906A101050719E029E715002501950891
:1001D000750181029501750881010507190029FF44
:1001E000150026FF009506750881000508190129EC
:1001F00005950575019102950175039101C01124C2
:100200001FBECFEFDAE0DEBFCDBF11E0A0E0B1E06E
:10021000E0E4FDE302C005900D92AE39B107D9F7D5
:1002200022E0AEE9B1E001C01D92A735B207E1F7C7
:100230000E9437100C945F1E0C940000811112C0B4
:10024000633080F4433070F4E42FF0E083E0689F83
:10025000E00DF11D1124EE0FFF1FE055FF4F8591BA
:100260009491089581E090E008950E941E01089500
:10027000862B59F4E1E04E27E42FF0E0EE0FFF1F4C
:10028000E455FF4F85919491089581E090E00895A1
:100290000E943801089581E0089581E008950E9448
:1002A0004D01089508950E9452010895A5E0B0E01F
:1002B000ECE5F1E00C94CB1D49835A833091A50104
:1002C00089819A81311119C0662399F0222389F01E
:1002D0000E940607182F682F89819A810E94D306F1
:1002E00069817A81812F0E94ED0D2596E3E00C94BF
:1002F000E71D0E94ED06182FF3CF0E9406076981C3
:100300007A81F1CFFC01262F408151816281738176
:1003100084810E945601089581E00895CF93DF9370
:10032000EC0160E00E948201BE010E945301DF9156
:10033000CF91089508950E94A2050E949A012FEF7F
:1003400084E39CE0215080409040E1F700C0000031
:1003500008950E949B010E94021708950E949B012C
:100360000E94131708950F931F93CF93DF938C016F
:1003700061E00E948201EC01B8010E944F018111ED
:1003800006C080E0DF91CF911F910F910895B801D1
:10039000CE010E94F5148823A1F3B801CE010E947A
:1003A000C812882371F3B801CE010E946714882314
:1003B00041F3F8018281882361F0C330FCE7DF0755
:1003C000E9F058F4C115ECE7DE07A9F0C130DC47CD
:1003D000B9F0C8010E944B01D5CFCB358CE7D807C7
:1003E000A9F0CC35ECE7DE0771F0CA35DC4789F7B8
:1003F0000E94370BEECF0E94A901C3CF0E943F0B92
:100400000E94AE01BECF0E942D0BE3CF0E943B0B9A
:10041000E0CF0E9434160E94300208950E943402F8
:100420000E9439160895089581E008950895CF93A4
:10043000DF93D82F0E941402C82F882319F08D2F24
:100440000E9416028C2FDF91CF9108950895CF93CB
:10045000C82F0E9413028C2F0E941702CF9108957B
:1004600080E00E94270208950E9443150E942702FF
:100470000895CF930E944315C82F8091A0018C1737
:1004800079F0C093A0010E94C3166093A1017093FC
:10049000A2018093A3019093A4018C2F0E942702B4
:1004A000CF910895ABE0B0E0E8E5F2E00C94CC1D0C
:1004B0004F83588769877A878B8761110E94780AF2
:1004C0001E821D8285E0FE013796DE0111960190A5
:1004D0000D928A95E1F78C819D81892B61F4498188
:1004E0005A816B817C818D819E810E94A0092B960F
:1004F000E2E00C94E81D89819A8189238F3F79F38A
:10050000CE0101960E948C018111E9CFF0CFFC0150
:10051000808191810E9438070895662329F00E9406
:10052000BB100E948E1108950E941511FACFCF932F
:10053000C82F8823B9F08CEF8C0F813AA8F46C2F68
:1005400080910001909101010E94C515882329F036
:100550008C2F0E94380A0E94990A8C2F0E94300A20
:100560000E94990ACF91089580E28C0F883048F458
:10057000C77081E001C0880FCA95EAF70E945B0A44
:10058000EFCFEBE5EC0FE33040F4F0E0E75BFE4F3C
:10059000808190E00E946915E5CFE8E5EC0FEB3132
:1005A00050F4F0E0EE0FFF1FED5EFE4F8081918171
:1005B0000E948E15D7CF83E38C0F833198F661E0CC
:1005C0008C2F0E948D02CECF882381F19CEF980F53
:1005D000913A28F40E94380A0E94990A089590E2FC
:1005E000980F983050F4877091E001C0990F8A9568
:1005F000EAF7892F0E94610AEFCF9BE5980F9330AD
:1006000028F490E080E00E946915089598E5980F1D
:100610009B3128F490E080E00E948E15089593E3CA
:10062000980F933118F460E00E948D0208951F9393
:10063000CF93DF93182FEB010E949702209739F494
:10064000812F0E94E402DF91CF911F9108958FE9DD
:100650009FE00197F1F700C000002197EFCF70E015
:1006600060E0893311F460E570E00E94170308959B
:10067000882321F00E945B0A0E94990A089588232A
:1006800021F00E94610A0E94990A0895B0E0A0E05A
:10069000ECE4F3E00C94C51D6C01D62FC72FFC01D0
:1006A0001281058102950F700E94510AE82E88235D
:1006B000E9F0E12E1123D1F08C2F807F803451F0AE
:1006C00080E28D0F8830F8F0011104C08C2F807EFD
:1006D0008032C9F080913F0282FF15C082E00E9403
:1006E000FC0A0E94510A91E0E82EE926BC2EB29441
:1006F0009FE0B922FBE0FB15B8F1EB2DF0E0EF59DC
:10070000F14E0C94B61DE12CF1CF0C2F0F70C07F71
:1007100011F00295007F112399F0002359F080E237
:100720008D0F883010F0D11107C0802F0E945B0A16
:100730000E94990A8D2F63C0802F0E946B0AF8CF08
:100740008D2F0E94E402002379F080E28D0F883023
:1007500010F0D11104C0802F0E94610A03C0802FC5
:100760000E94710A0E94990A2B2D2850330B2430C5
:10077000310520F40E9443150E942702EE2089F0E3
:100780000E944D0A80FD0DC0F60112820E94470AA8
:100790000E943106C6010E9462050E94470A0E941B
:1007A0004106CDB7DEB7E9E00C94E11D2C2F2F7088
:1007B000F22EC07FC03219F0F29480EFF822DD23D0
:1007C00081F0D13009F449C0112309F451C000234C
:1007D00009F448C0F601858180FFACCF8F70858316
:1007E00041C080913F0282FD15C0112359F0FF20C6
:1007F00029F08F2D0E945B0A0E94990A80E00E94D6
:100800009702B2CF80E00E94E402FF2009F4ACCF4F
:100810008F2DA2CF112381F0011106C00E947B0A07
:100820008F290E943803A0CF0130C1F70E947B0AB4
:100830008F290E94820A98CF011106C00E948F0A58
:100840008F2D0E943F0390CF013009F48DCF8F2D63
:100850000E943F030E948F0A87CF112329F00630A0
:1008600008F082CF8F2DDDCF053008F07DCFE8CFA7
:10087000002331F3D93349F4FFEF27EE33E0F15091
:1008800020403040E1F700C000008D2F0E94E402BC
:100890006BCF8C2F86958695837069F0813009F037
:1008A00063CF8D2F9C2F9370111102C080E090E0D8
:1008B0000E948E1559CF8D2F9C2F9370111102C05D
:1008C00080E090E00E9469154FCF612F8D2F0E942C
:1008D0008D024ACF8C2F8370A1F5111145CF4D2F7A
:1008E000429546954770440F440F2D2F2F7030E0EE
:1008F000042E02C0220F331F0A94E2F790E080E03A
:10090000D4FF09C08FE090E002C0880F991F4A957C
:10091000E2F780959095C695C695C370822B932B70
:10092000C23049F058F4C13019F00E9401061CCFC2
:100930000E94F80519CF0E940A0616CF0E94F505FD
:1009400013CF8695112311F08C2F8170882309F421
:100950000BCF4D2F429546954770440F440F2D2FD6
:100960002F7030E0042E02C0220F331F0A94E2F7EA
:1009700090E080E0D4FF09C08FE090E002C0880FD3
:10098000991F4A95E2F780959095C695C695C370D4
:10099000822B932BC23049F058F4C13019F00E94D9
:1009A0006C06E2CE0E946306DFCE0E947506DCCEA6
:1009B0000E941906D9CECF70112329F08C2F0E94E6
:1009C00031068D2F2ECF8D2F0E943F038C2F0E943A
:1009D0004106CACED23F41F160F4D03FB9F0D13FD9
:1009E00081F0112309F446C00111A4CE8C2F8F7120
:1009F0001FC0D33F01F1D43FA1F780913F0282FD98
:100A000024C08C2F8F71112311F312C0112341F0D8
:100A1000053008F0A9CE8C2F8F710E945306A4CE0A
:100A2000063008F0A1CEF7CF8C2F8F711111CFCFE8
:100A30000E94310699CE112329F08C2F8F710E94CC
:100A4000250692CE0E9420068FCE112349F0CF7149
:100A50008C2F0E94310663E08C2F0E94DE0A84CE28
:100A600081E00E94FC0A023008F47ECE82E00E94FF
:100A7000FC0A7ACE002359F0D93309F006CF8FEF64
:100A800097EEE3E081509040E040E1F7FCCE8C2F00
:100A90008F719DCF0F931F93CF93DF93EC016881EC
:100AA00079818A810E9443078C010E947E060E9400
:100AB000F405B801CE010E944603DF91CF911F914A
:100AC0000F910895CF93DF93EC018B819C81892B4B
:100AD00029F08881998189238F3F51F4DF91CF914B
:100AE0000895CE010E944A05CE010E948E01F6CFE4
:100AF000CE010E94B3018111F4CF0E94510A8823D4
:100B000069F38A81882351F380913F0282FFE6CF07
:100B100082E00E94FC0AE2CF90E080E00E9469152A
:100B200090E080E00E948E150E94780A0E94990A47
:100B30000E94AA110E948E1108950E94400A0E94EC
:100B40008C0508950E94680A0E949D05089592955B
:100B50009F70963091F058F4925F9F70923058F4E5
:100B6000803F19F030F4883E30F481E008959A5FB8
:100B7000F4CF843FD1F380E00895883EB0F3813F05
:100B8000D1F7F3CFFC0183819481892B29F08081F7
:100B9000918189238F3F11F480E0089580819181B4
:100BA0000E9438070E94A7050895A5E0B0E0EBED8C
:100BB000F5E00C94CC1D2596E2E00C94E81DA6E02F
:100BC000B0E0E5EEF5E00C94CC1D2696E2E00C9446
:100BD000E81D08950E94E90508950E94EA05909392
:100BE000B5018093B401089508950E94ED0508951C
:100BF0002091B4013091B501822B932B0E94ED0519
:100C000008952091B4013091B501822393230E946D
:100C1000ED0508952091B4013091B5018227932705
:100C20000E94ED0508950E94E90508950E941306AB
:100C300008950E9416069093B3018093B20108951F
:100C400090E080E00E941906089521E030E0A901BB
:100C500002C0440F551F8A95E2F7CA010E94190687
:100C6000089521E030E002C0220F331F8A95E2F799
:100C70008091B2019091B301822B932B0E941906AF
:100C8000089521E030E002C0220F331F8A95E2F779
:100C9000209530958091B2019091B30182239323E6
:100CA0000E941906089521E030E002C0220F331F90
:100CB0008A95E2F78091B2019091B3018227932740
:100CC0000E94190608952091B2013091B301822B40
:100CD000932B0E94190608952091B2013091B3011F
:100CE000822393230E94190608952091B201309126
:100CF000B301822793270E94190608950895262F8D
:100D0000277091E001C0990F2A95EAF723E07695C4
:100D100067952A95E1F7660F771F660F771FFA012F
:100D2000E60FF71F50E040E0682F70E08191DF018F
:100D300011979B01042E02C0369527950A94E2F77D
:100D4000217021952827292328272C934F5F5F4F57
:100D50004430510559F70895A82FA77023E09695C0
:100D600087952A95E1F7880F991F880F991FFB0136
:100D7000E80FF91F50E040E080E0219130E00A2EBA
:100D800002C0369527950A94E2F721703327042E86
:100D900001C0220F0A94EAF7822B4F5F5F4F443065
:100DA000510559F70895282F862F933070F423307A
:100DB00058F4622F70E023E0929F600D711D1124A2
:100DC0004AEA51E00E947F0608959C5F9230E0F766
:100DD000622F70E046EA51E0F5CF292F933068F496
:100DE000833090F490E06AEA71E033E0239F800D55
:100DF000911D11240E94AC0608952C5F223020F42E
:100E000066EA71E090E0F6CF80E00895B0E0A0E0FF
:100E1000ECE0F7E00C94C51D7C010091B20110914B
:100E2000B3018091B4019091B501082B192BCFE04B
:100E3000D0E0CC24C394D12CBC2EC6010C2E02C011
:100E4000880F991F0A94E2F780239123892B49F494
:100E5000219790F7B12C8B2DCDB7DEB7E9E00C943C
:100E6000E11DB7018C2F0E94060E019789F3F3CF85
:100E7000CF93DF93EC010E940607BE010E94060E8D
:100E8000DF91CF9108951F93CF93DF93EB01909162
:100E9000A501992339F0CB010E943807DF91CF914A
:100EA0001F910895882369F0CB010E940607182F2F
:100EB000682FCE010E94D306BE01812F0E94060E2C
:100EC000EDCFCB010E94ED06182FF6CF1F93CF93E5
:100ED000DF93C091B60116E08091B7018C1304C076
:100EE000DF91CF911F910895D0E01C9FF0011D9FCD
:100EF000F00D1124E854FE4F4081518162817381CD
:100F0000848195810E94DF052196C770E5CF4091CD
:100F1000E8015091E9016091EA017091EB01809143
:100F2000EC019091ED010E94DF0508952091B6013A
:100F30009091B70156E0291302C080E0089530E097
:100F4000529FF001539FF00D1124E854FE4F718120
:100F5000761306C07081781303C07281741304C0C5
:100F60002F5F3F4F2770E7CF81E008951F93CF9306
:100F7000DF938091ED01807F09F04BC08091EA0101
:100F8000882309F446C08091B601C091B701409111
:100F9000E8015091E9016091EB017091EC01D42FCF
:100FA000D52316E0C817A9F190E061157105A9F1E4
:100FB000DF3F99F1189FF001199FF00D1124DF0117
:100FC000A854BE4F11962C911197251326C02C9131
:100FD000241323C012962C91129721111EC0139630
:100FE0002D913C91261B370B283C3105B0F48091A4
:100FF000ED018F7080618093ED01E354FE4F80819D
:101000008F708061808388EE91E00E9462050E946B
:101010006607DF91CF911F91089501968770C2CF27
:10102000A1E1B0E0E6E1F8E00C94C21D8C0185E09E
:10103000F801DE011D9601900D928A95E1F7F80105
:10104000F28088EEA82E81E0B82E4091EB015091FD
:10105000EC014115510509F45AC19091E801209124
:10106000E901892F82238F3F09F451C1C080D180CB
:1010700083809480E090EA01B401641B750BEE203C
:1010800009F4F6C08091ED01382F307F683C71057E
:1010900008F0AFC031117AC0EF2C2D1116C09C1191
:1010A00014C0F11012C08F7080618093ED010E9416
:1010B0008707C5010E9462058091ED01F8018583D3
:1010C0008E2D6196ECE00C94DE1D81149104C9F123
:1010D0008C2D8D218F3FA9F181E08F2580FF05C0E8
:1010E0004F2D6D2D8C2D0E9496078114910459F17E
:1010F0008C2D8D218F3F39F181E08F25F82FF170F4
:10110000BF2E80FF39C04F2D6D2D8C2D0E9496076C
:10111000A82E811131C0CD86DE868D859E850E94E8
:101120003807292F22952F70243078F49F702230B1
:10113000A8F09923B9F0F8019581907F99F4EA2CF1
:10114000BFCF80E0CBCF80E0D9CF2A5F2F70223095
:1011500068F0C8010E946205AB2CF1CF992311F011
:10116000882369F3805E883050F3F3CF803F38F3F3
:10117000815F833070F7E3CFFF2009F4A1CF809126
:10118000ED0181608093ED01E12C9ACF2D1105C016
:101190009C1103C0FF2009F486C0C8010E94C2054B
:1011A000882319F1FF2009F18091ED01803270F060
:1011B0002091E8013091E90138872F8319869B86B9
:1011C0008A868C87CE0107960E94620586E0F80128
:1011D000A8EEB1E001900D928A95E1F70E94B60762
:1011E0000E948707EE24E3946BCFC8010E9462053A
:1011F000F9CF311114C0782D998A888AA6016F2DF4
:1012000089890E94D50588EE91E00E94620586E0FA
:10121000F50111928A95E9F70E948707B5CF2D1144
:101220000EC09C110CC0F1100AC08583C8010E9439
:10123000620586E0F50111928A95E9F741CFC80170
:101240000E94C205882389F2FF2079F28091ED0186
:10125000803208F4BBCF2091E8013091E9013A8354
:1012600029831B829D828C828E83CE010196ACCF16
:10127000683C710508F03DC0EF2CFF2009F4B5CFA4
:101280002D1129C09C1127C08091ED0180FD1AC04D
:10129000982F907FB9F08583903F31F0982F907F01
:1012A000905F8F70892B8583C8010E94620586E05C
:1012B000F801A8EEB1E001900D928A95E1F70E9445
:1012C0008707FECE86E0F801A8EEB1E001900D920E
:1012D0008A95E1F7F5CEC8010E94C205811176CF4B
:1012E0008091ED0181608093ED01C8010E9462054B
:1012F000E7CE782D998A888AA6016F2D89890E9468
:10130000D50586E0F50111928A95E9F7D8CFFF203F
:1013100009F46BCFC8010E94C205E82E882309F4A6
:1013200064CF86E0F801A8EEB1E001900D928A95B5
:10133000E1F788EE91E00E9487020E94B607BFCFD6
:10134000ACE0B0E0E6EAF9E00C94CB1D4F8358879F
:1013500069877A878B879C87CE0107960E94100841
:101360008823B1F08A859B85892B39F04F81588578
:10137000842F85238F3F09F06CC016E08091B60161
:101380009091B701891343C02C96E3E00C94E71DBC
:1013900086E0FE013796DE01119601900D928A9546
:1013A000E1F78A859B85892B41F38F819885892375
:1013B0008F3F19F32091B70130E0C9010196877082
:1013C00099274091B6014817190671F40E94A205A9
:1013D0001092B7011092B60186E0E8EEF1E0DF016D
:1013E0001D928A95E9F7C9CF96E0929FD001939F0D
:1013F000B00D1124A854BE4FFE01319601900D92FC
:101400009A95E1F78093B7010E946607B6CF819F56
:10141000C001112488549E4F0E941008882309F4AB
:10142000B3CFE091B6011E9FF0011124E854FE4FA6
:101430004081518162817381848195810E94DF05A1
:101440008091B60190E00196877099278093B6014C
:1014500095CF69857A858B859C850E94DF058DCF28
:10146000682F80910001909101010E94FB15089561
:10147000682F80910001909101010E94FE1508954E
:1014800080910001909101010E94011608958091C0
:10149000F60185958595859508958091F60187706B
:1014A00008959091F601977081E009F480E0089525
:1014B00080910102089590910102892B809301028D
:1014C00008958095909101029823909301020895C8
:1014D00010920102089590910002892B80930002DE
:1014E00008958095909100029823909300020895AA
:1014F0001092000208958091F701089508950E94C6
:101500007E0A089590913F0292FF08C09091F701E2
:10151000981721F08093F7010E947F0A0895809127
:10152000F701882329F01092F70180E00E947F0ADA
:101530000895CF93DF93E0910001F0910101809134
:1015400001028083E0910001F0910101808190917E
:101550000002892B80839091F701992381F0E0911B
:101560000001F09101018081892B8083809100012D
:10157000909101010E94B31581110E948F0AC091C0
:101580000001D091010148E050E06EEE71E0CE0123
:101590000E94071E892B59F088E0FE01AEEEB1E0F3
:1015A00001900D928A95E1F7CE010E945015DF91CE
:1015B000CF91089508950E94DA0A089590913F020C
:1015C00092FF11C098E0899F90011124622B6093D3
:1015D000F6010E9431068091F601859585958595E5
:1015E0000E94DB0A08950E94310608951092F601C8
:1015F00080E00E94DB0A08959091F601809589238E
:101600008093F601282F277091F4282F082E000CC4
:10161000330B9217130659F090913F0292FF07C0C7
:101620008595859585950E9441060E94F60A089544
:1016300090913F0292FB222720F9281769F080FB46
:1016400092F990933F0280913E0290913F020E9456
:10165000600B82E00E94FC0A089580913F0282FBA9
:10166000882780F991E089270E94180B089581E06E
:101670000E94180B089580E00E94180B08956FEFE8
:101680007FEF90E080E00E94491E089590E080E0A6
:101690000E94251E21E0873E9E4F09F020E0822F08
:1016A000089582E090E00E941D1E089583E090E07E
:1016B0000E941D1E089584E090E00E94251E08955A
:1016C000BC0184E090E00E94491E0895AB01BC017A
:1016D0008FE090E00E943D1E0895AB01BC0183E1C4
:1016E00090E00E943D1E089560E070E0CB010E94F2
:1016F0006D0B089560E070E0CB010E94660B0E94C4
:10170000740B089567EE7EEF90E080E00E94491E22
:1017100060E082E090E00E942B1E60E083E090E0B9
:101720000E942B1E1092B5011092B40160E074E18A
:1017300084E090E00E94491E60E086E090E00E9414
:101740002B1E6FEF87E090E00E942B1E40E050E0E0
:10175000BA0188E090E00E943D1E60E08DE090E0DC
:101760000E942B1E40E050E0BA0188E190E00E9408
:101770003D1E60E087E190E00E942B1E40E050E0BB
:10178000BA018CE190E00E943D1E70E060E080E2D2
:1017900090E00E94491E40E050E0BA0188E190E0EC
:1017A0000E943D1E0E947A0B08950E94820B0895AC
:1017B000682F8EE090E00E942B1E0895A5E0B0E017
:1017C000E4EEFBE00C94CA1D0E94B7168C018091D8
:1017D00002029091030280179107A1F08FEF898395
:1017E0008A831B820E94B7168160782F9D838C8329
:1017F00049815A816B818D810E94520210930302AC
:10180000009302022596E4E00C94E61D0E94C316A4
:1018100060930F0270931002809311029093120252
:1018200060930B0270930C0280930D0290930E0252
:1018300008950E94C31660930F0270931002809364
:101840001102909312026093070270930802809332
:10185000090290930A020895089508950E942D0C9C
:10186000089508950E94310C089581E0089580EF55
:101870009EE00E9439150E942C0C0E942E0C0895A7
:101880000E94350C08950E94400C08950895089513
:101890000E94460C0E94470C08950E940F0F0E9460
:1018A000260208950E94AE160E94AB130E94960F66
:1018B0000E944D0C0E94320C0895A5E0B0E0E3E6D2
:1018C000FCE00C94C41D0E94350C81110FC00E94D5
:1018D000DE0B0E94CA1381110E94190C0E94CC11C8
:1018E0000E9439022596EAE00C94E01D0E94AC0F9C
:1018F0001091040280E00E94350F18130EC0109161
:10190000050281E00E94350F811307C01091060285
:1019100082E00E94350F1817D1F28091130281FDE9
:101920000E943B0F0E94430CC82E84E0A82E82E048
:10193000B82E10E0812F0E94350F082FF5018191FC
:101940005F01081731F1D02ED826F12CEE24E39454
:101950008D2D8E21B1F0CC20A1F0F9821A8391E077
:10196000802F8E2109F490E09B830E94B71681603E
:10197000782F9D838C8349815A816B818D810E9450
:101980005202F394EE0CF3E0FF12E2CFF50131972F
:1019900000831F5F133071F60E94060C9ACF1F93CD
:1019A000CF93DF930E940B0EEC01C11580E5D807A1
:1019B000F0F5C11580E4D80708F09CC0C03ED10501
:1019C00020F5CD3CD10508F082C0C83AD10578F4A5
:1019D000C53AD10508F073C0C130D10519F120977F
:1019E00009F1C430D105F0F4D0E0C0E01BC0C13C27
:1019F000D105D0F7C85AD0E0CC0FDD1FC45BDE4F55
:101A00000990D881C02DD4640DC0C11580E2D807DB
:101A100008F0D1C0C11581E0D80708F05AC0C83E0F
:101A2000D10510F7CE01DF91CF911F910895C036F7
:101A300082E5D80718F5C03482E5D80708F06BC0F6
:101A4000C03282E5D80708F05FC0C11582E5D8072B
:101A500008F497C02C2F2695269580E2289F9001A8
:101A600011248C2F8370C1E0D0E002C0CC0FDD1FA9
:101A70008A95E2F7C22BD32BDD68D4CFC03A82E53A
:101A8000D80760F4C03882E5D80708F459C0CF7190
:101A9000D0E0DC2FCC27C46FD06AC4CFC03C82E535
:101AA000D80708F462C0C03E82E5D80708F09CCF92
:101AB000DC2FCC27CC27DF71C06FD06AB3CFC55ADB
:101AC000D0E0CE57DE4FC881D0E0D064ABCFD06538
:101AD000A9CF8D2F0E94AD0E182FCE0199270E94FD
:101AE0000B0EC12FD0E0DC2FCC27CC27DF71C82B09
:101AF000D92B98CFCE0199270E940B0ECC27DF70EF
:101B0000C82BD92BD06A8ECFCF71D0E0DC2FCC2759
:101B1000C16FD06A87CF2C2F26952695277080E23B
:101B2000289F900111248C2F8370C1E0D0E002C067
:101B3000CC0FDD1F8A95E2F7C22BD32BDC6872CF66
:101B40002C2F26952695277080E2289F900111243E
:101B50008C2F8370C1E0D0E002C0CC0FDD1F8A95CE
:101B6000E2F7C22BD32BDA685DCF8C2F8F710E94E6
:101B7000AD0EC82FD0E0DC2FCC27CC27DF71D06290
:101B800051CF8C2F8F710E94AD0E55E0D695C79521
:101B90005A95E1F7CF70D0E0DC2FCC27282F30E02A
:101BA00084FF05C044E0220F331F4A95E1F7C22BA2
:101BB000D32BD06937CF8D2F8F710E94AD0E182F88
:101BC000CE0199270E940B0EC12FD0E0DC2FCC272D
:101BD000CC27DF71C82BD92BD2CF462F672F73307C
:101BE00028F4433080F40E94350108957D3F39F494
:101BF000411109C041E060E00E94480108957C3F26
:101C000011F44423C1F390E080E008950E94ED0DAB
:101C10000E94CF0C089582389105B9F1B0F4813358
:101C2000910509F47DC048F48932910509F46DC02D
:101C30008A32910509F47BC008958533910509F432
:101C40005FC08933910509F10895833E9105D9F16B
:101C500038F4803E910529F1823E910579F108958D
:101C6000863E9105D9F1873E910509F43EC0843E38
:101C7000910541F520913F0221FF24C080913E0251
:101C800084FD19C087EE90E0089520913E022370F4
:101C900009F05AC020913F0223FF14C089E290E06E
:101CA000089520913E0220FD38C030913F0230FF60
:101CB00009C024FF43C090E080E0089520913E02D7
:101CC00022FDF7CF089520913E0222FD3AC03091C7
:101CD0003F0230FD39C024FFF5CFEDCF20913E0209
:101CE00023FFF0CF24FDE7CFCDCF20913E0223FD8F
:101CF0002EC030913F0231FFEECF84EE90E0089588
:101D000020913E0225FFDECFC9CF20913E0225FD66
:101D100021C020913F0223FFD5CF89E390E0D2CFAD
:101D200020913E0226FFCECF8AE290E008952091D6
:101D30003E0226FFC7CF81E390E0089583EE90E056
:101D4000089582EE90E0089580EE90E0089586EE8A
:101D500090E0089585E390E0089590913E0292FF0F
:101D600006C0282F28712830F9F4877F846093FFFC
:101D700006C0282F28712831F1F4877E84612091D4
:101D80003F0220FF06C0382F38713830D9F4877FE2
:101D9000816021FF06C0282F28712831D1F4877E69
:101DA000816194FD877E0895282F24712430F9F6EF
:101DB0008B7F8860DCCF282F2471243101F78B7E44
:101DC0008861DDCF382F3171313019F78E7F88600F
:101DD000E0CF282F2171213121F78E7E8861E1CF5C
:101DE00080E008950E943F0B08950E94AC0F2FEFF2
:101DF00086E791E0215080409040E1F700C000006C
:101E00000E94AC0F80E00E94350F80FF04C00E944A
:101E1000F20E0E94021708950E94F50E08950E9486
:101E2000460B811102C00E94D50B0E94510B80937A
:101E300013020E945B0B90933F0280933E020E942C
:101E40000C0F0E94560B90E00E94F5058091B201A4
:101E50009091B3010E941606089508950E942D0FD7
:101E6000089508950E94310F0895E82FF0E0ED5B8A
:101E7000FD4F8081089508951F93CF93DF9325E848
:101E800031E0C1E0D0E0D90150E040E08D918F3FDA
:101E900091F0E82FE295EF70F0E011A18F70BE0194
:101EA00001C0660F8A95EAF7962F9095912391A32A
:101EB00082A1862B82A34F5F5F4F4330510531F7DC
:101EC0002D5F3F4F81E02E383807E9F6DF91CF9143
:101ED0001F910895CF93DF93AC01A62FB0E083E06C
:101EE000689FF0011124EB57FE4F73E081E060E042
:101EF00091919F3FC9F0C92FC295CF70D0E028A122
:101F000030E09F7002C0359527959A95E2F720FD45
:101F10000BC0282F622B880F715051F7A40FB51FEB
:101F20006C93DF91CF91089520E0F4CF0E943C0F95
:101F300083E0E3E4F2E0DF01982F1D929A95E9F740
:101F4000E0E4F2E0DF011D928A95E9F783E00E9468
:101F5000EB0F0E942E0F0895A3E0B0E0E2EBFFE04C
:101F60000C94CB1D19821A821B8260E0CE0101966F
:101F70000E946A0F61E0CE0101960E946A0F62E042
:101F8000CE0101960E946A0F43E050E0BE016F5FF0
:101F90007F4F80E492E00E94071E21E0009709F441
:101FA00020E0892B49F089819A81AB81809340029E
:101FB00090934102A093420243E063E472E080E424
:101FC00092E00E94EC0F182F0E94320F812F23966F
:101FD000E3E00C94E71D0895CF92DF92EF92FF9219
:101FE0000F931F93CF936C017B01042F222349F0A1
:101FF00081E0809316020E94B71690931502809399
:102000001402C0911602C1110AC0C0E08C2FCF91FA
:102010001F910F91FF90EF90DF90CF9008958091E6
:102020001402909115020E94CF16059770F310E0EC
:10203000A801B601C7010E94071E892B41F0A80123
:10204000B601C7010E94141E10921602DFCFC0E035
:10205000FBCF0E9478180E94520C0E9485180895A8
:102060000E948A180E945D0C0E94A41808950E9484
:1020700050160E945E180E94370C0E9429100E9480
:1020800030100E94480CFBCF80911D0280FF0DC0D4
:102090006091070170E0660F771F6038710570F579
:1020A0006115710569F1862F089581FF07C0609160
:1020B000070184E0689FB0011124EFCF6091070110
:1020C00082FD0AC080911C028823A9F0209106019C
:1020D00060910701821710F088E0ECCF869FC00165
:1020E000112433E0880F991F3A95E1F7622F70E0D1
:1020F0000E94A21DD2CF68E070E0D5CF8FE708958F
:1021000081E0089580911D0280FF0CC06091030161
:1021100070E075956795759567956115710549F13D
:10212000862F089581FF06C06091030170E07595C8
:102130006795F3CF6091030182FD0BC090911B0264
:102140009923A1F06091020180910301961738F064
:10215000682F70E06038710500F38FE70895899F5C
:10216000C001112470E00E94A21DF4CF61E070E074
:10217000D7CF81E008958D3C31F40E9444108195C1
:102180008093210208958E3C19F40E944410F8CFE8
:102190008F3C31F40E944410819580932002089571
:1021A000803D19F40E944410F8CF893D29F40E9423
:1021B00082108093220208958A3D21F40E948210A9
:1021C0008195F7CF8B3D31F40E94821081958093E9
:1021D000230208958C3D19F40E948210F8CF9FE2EB
:1021E000980F983070F4815D990B21E030E001C0C8
:1021F000220F8A95EAF780911F02822B80931F029B
:1022000008958D3D31F480911D02816080931D02FF
:1022100008958E3D21F480911D028260F7CF8F3D9D
:10222000B9F780911D028460F1CF409120028D3C6E
:1022300059F48091210287FF0DC0109221024111B3
:102240000BC010921C0208C08E3C81F480912102C8
:1022500018169CF3442381F080912202909123026E
:10226000892B09F05AC010921B0208958F3C49F443
:1022700047FFF0CF10922002809121028111ECCF14
:10228000E0CF803D19F41416ACF3E4CF9091220214
:10229000893D29F41916F4F610922202DBCF8A3D0B
:1022A00019F497FFD7CFF8CF909123028B3D29F4F3
:1022B00097FFD0CF10922302CDCF8C3D19F4191681
:1022C000CCF3C8CF9FE2980F983090F4815D990BC2
:1022D00021E030E0B90102C0660F771F8A95E2F76E
:1022E000CB01809590911F02892380931F02B2CF6A
:1022F0008D3D31F480911D028E7F80931D02AACF07
:102300008E3D21F480911D028D7FF7CF8F3D09F026
:10231000A1CF80911D028B7FF0CF08950E94B71648
:102320009C019091200280912102982B21F0309302
:102330001A02209319029091220280912302982B75
:1023400021F030931802209317028EE192E00E9450
:102350005B15089586E0EEE1F2E0DF011D928A95BB
:10236000E9F710921C0210921B0210921D020895B0
:10237000FC01828181110EC0838181110BC0848197
:10238000811108C091E08581811101C090E0892F01
:102390008170089581E0FCCFA6E0B0E0E2EDF1E1CC
:1023A0000C94CB1D86E0EEE1F2E0DE011196019087
:1023B0000D928A95E1F7109220021092210210925C
:1023C0002202109223028B819C81892B89F08091BB
:1023D000190290911A020E94CF16AC0190911C0232
:1023E0009923C9F1809108018417150608F440C0AB
:1023F0008D819E81892B91F0809117029091180216
:102400000E94CF16AC0190911B02992309F471C070
:10241000809104018417150608F479C0BE016F5F2E
:102420007F4F8EE192E00E940816811105C08EE177
:1024300092E00E94B81181110E948E1186E0FE0187
:102440003196AEE1B2E001900D928A95E1F72696C1
:10245000E3E00C94E71D209109018AE0289F900198
:1024600011242417350720F69F5F90931C0202C0A9
:102470009F3FD1F71B81112359F00E9444109FEF19
:1024800011160CF491E0899F802D11248093200275
:102490001C81112359F00E9444109FEF11160CF477
:1024A00091E0899F802D1124809321023091200298
:1024B000332309F49DCF20912102222309F498CFE0
:1024C00045EB3403C0011124992359F09093200265
:1024D00045EB240390011124332339F0309321027A
:1024E00087CF81E080932002F3CF81E080932102A7
:1024F0007FCF209105018AE0289F900111242417A5
:10250000350708F08BCF9F5F90931B0202C09F3F5F
:10251000D1F71D81112359F00E9482109FEF1116EF
:102520000CF491E0899F802D1124809322021E815A
:10253000112359F00E9482109FEF11160CF491E0C4
:10254000899F802D1124809323023091220233230E
:1025500009F464CF20912302222309F45FCF45EBD5
:102560003403C0011124992359F09093220245EBC2
:10257000240390011124332339F0309323024ECFEA
:1025800081E080932202F3CF81E08093230246CF43
:10259000CF93DF93EC01FB018281882309F4D2C041
:1025A0009E0130572332310508F0B2C00E945B0B08
:1025B00090933F0280933E02FE01E150F047E232E9
:1025C000F10520F4E359F14E0C94B61D80913E02C2
:1025D000816080933E0293C080913F028860809327
:1025E0003F028DC080913E028260F3CF80913E0217
:1025F0008460EFCF80913E028860EBCF80913F02F4
:102600008160EDCF80913F028260E9CF80913E02F0
:102610008061DFCF80913E028062DBCF80913E02FD
:102620008064D7CF0E94A20580913E028068D1CFFE
:1026300080913E028C60CDCF80913F028360CFCFEE
:1026400080913E028E7FC5CF80913F02877FC7CFAA
:1026500080913E028D7FBDCF80913E028B7FB9CFAE
:1026600080913E02877FB5CF80913F028E7FB7CFAA
:1026700080913F028D7FB3CF80913E028F7EA9CFA4
:1026800080913E028F7DA5CF80913E028F7BA1CFAE
:102690000E94A20580913E028F779BCF80913E02DF
:1026A000837F97CF80913F028C7F99CF80913E02AC
:1026B00082FB992790F921E0922790FB82F990FB09
:1026C00083F987CF80913F02982F909591708E7FEC
:1026D000892B90FB81F983CF90913E02892F8F7BCC
:1026E00096FF806476CF0E94A20590913E02892FCA
:1026F00097FB87F980586DCF81E00E94D80B8091BD
:102700003E0290913F020E94600B0E94A20580E071
:10271000DF91CF91089580E0F0CF90913E02892F14
:102720008F7E94FF806155CF90913E02892F8E7FDE
:1027300090FF81604ECF90913F02892F877F93FF5A
:1027400088604DCF81E0E4CF8FE891E00197F1F709
:1027500000C00000089581E08093250253985B9AA1
:1027600052985A9A0E94A4132091250247E252E0FF
:10277000FA018E2F841B821708F0089589B183FB1C
:10278000882780F94A9904C090E0892B8193F1CF82
:1027900092E0FBCFA4E1B0E0E0EDF3E10C94C11DC9
:1027A00010E000E084E0C82ED12C9DEF992E882403
:1027B00083942CEF722E80912502181728F0802F19
:1027C0006496EDE00C94DD1DE12EF12CE9B1E3FB04
:1027D000EE27E0F94A9979C080E08E2BD701A95DF8
:1027E000BD4FEC919E2F9370981709F46CC0EE0FBB
:1027F000EE0FE82BEC93EF70F0E0E257FE4FC701CD
:102800008A5D9D4F5C018081F5019081890F8083F5
:1028100020E084302CF1F701EC5DFD4F80818F5F6B
:1028200080830E94B7161B877C868D868160782FF7
:102830009F878E87412F5CEF61E08F850E94520257
:102840000E94B716188B798A1A8A8160782F9C8B20
:102850008B8B412F5CEF60E08C890E94520221E05B
:10286000F50180818D3F2CF5F701EC5DFD4F8081F6
:10287000815080830E94B71619839A828B8281606F
:10288000782F9D838C83412F5DEF61E08D810E94C5
:1028900052020E94B7161E839F8218868160782F8D
:1028A0009A878987412F5DEF60E08A850E945202F6
:1028B00021E0F5018081082E000C990BB6010E94E1
:1028C000A21D8083022B1F5F76CF82E086CFCF933D
:1028D000DF93EB0186319C4711F50E94580A9A81DB
:1028E000992399F08A7A91E009F490E09093280274
:1028F000811109C089E20E94300A0E94990A80E091
:10290000DF91CF91089585E3F6CF80912802811160
:1029100004C089E20E94380AF0CF85E3FBCF81E052
:10292000EFCF0F931F93CF93DF93C42FD22FFC01D0
:1029300082818823C9F040932B020E94B71690939E
:102940002A028093290280E28C0F883040F4C770FD
:1029500081E001C0880FCA95EAF70E943803DF9131
:10296000CF911F910F91089510912B02141332C033
:102970008091290290912A020E94CF16883C9105ED
:1029800048F5C0E2CD0F1D17B9F080E2810F883005
:1029900040F4177081E001C0880F1A95EAF70E9491
:1029A0003F03C83048F481E09D2F977001C0880F25
:1029B0009A95EAF70E943803802F0E942F03C830AF
:1029C00070F6D77081E001C0880FDA95EAF70E94AF
:1029D0003F03C5CF80E28C0F883008F6C77081E0D6
:1029E00001C0880FCA95EAF7F2CF0F93DB01885137
:1029F0009C4787309105A0F5FC01E157F14E0C94FE
:102A0000B61D06E221EE41EE6AE17CE7CD010E94AF
:102A1000911480E00F91089507E225EE45EE6BE1F9
:102A20007CE7F4CF06E221EE40EE68E17CE7EECFF2
:102A300007E225EE44EE69E17CE7E8CF06E221EE0D
:102A400042EE6CE17CE7E2CF07E225EE46EE6DE177
:102A50007CE7DCCF08E221E045EE6EE17CE7D6CFF3
:102A600012968C91882319F010922B02D3CF81E01B
:102A7000D1CF90939F0180939E010895909331024E
:102A8000809330020895E0913002F0913102309746
:102A900029F00190F081E02D0995089580E00895D6
:102AA000E0913002F0913102309721F00280F38101
:102AB000E02D09950895E0913002F09131023097B0
:102AC00039F022E0DC012C930480F581E02D09959A
:102AD0000895A3E0B0E0EFE6F5E10C94CC1D209161
:102AE0002E0230912F0228173907A1F090932F0260
:102AF00080932E02E0913002F0913102309751F034
:102B000023E029839B838A830680F781E02DCE0111
:102B1000019609952396E2E00C94E81DA3E0B0E04D
:102B2000E4E9F5E10C94CC1D20912C0230912D02AA
:102B300028173907A1F090932D0280932C02E09181
:102B40003002F0913102309751F024E029839B83C9
:102B50008A830680F781E02DCE01019609952396A0
:102B6000E2E00C94E81D9C012E5F3F4FAC01485FF2
:102B70005F4F80E02417350709F40895F90191911A
:102B80009F019923B9F38F5FF5CF662349F0FC01CC
:102B9000329608962191261729F0E817F907D1F700
:102BA00080E0089581E008959C01FC0132969FEF3A
:102BB00080E04191461751F09F3F19F4411101C047
:102BC000982F8F5F8630A9F79F3F09F40895290F4A
:102BD000311D97FD3A95F90162830895FC01329603
:102BE00008962191261303C0DF0111971C92E81764
:102BF000F907B9F708950E94D41508950E94EE15BB
:102C00000895029626E0FC0111922A95E9F70895AD
:102C100046E050E00E94071E21E0892B09F420E0E5
:102C2000822F089508950E9412160895811106C0FA
:102C300081E0809332020E941316089582E0F9CF5A
:102C400083E0809332020E94131608950E941616A4
:102C5000089581E0809332020E94131608950E9425
:102C600029160895089508950E9433160895089529
:102C700008950E9432160895CF930E9437160E943D
:102C8000AC0F0E943816C0E08C2F0E94350F8111C6
:102C900005C0CF5FC330C1F7CF91089581E0FCCF6D
:102CA00085B7806885BF85B7806885BF08951F9206
:102CB0001FB61F9211248F939F93AF93BF93809160
:102CC0003302811113C08091460290914702A09176
:102CD0004802B09149024196A11DB11D8093460260
:102CE00090934702A0934802B0934902BF91AF91DD
:102CF0009F918F911F901FBE1F90189580914E023B
:102D0000843031F10E9409021092330288E190E090
:102D100020E40FB6F894A895809360000FBE20932E
:102D2000600083B7817F846083BF83B7816083BF86
:102D30007894889583B78E7F83BF0FB6F894A89553
:102D400080916000886180936000109260000FBEE7
:102D500008950E94A2050E940E02089582E084BD9B
:102D600093E095BD9AEF97BD80936E0008952FB7BD
:102D7000F8948091460290914702A0914802B09148
:102D800049022FBF08952FB7F894609146027091C1
:102D9000470280914802909149022FBF08959C01FB
:102DA0004FB7F8948091460290914702A091480253
:102DB000B09149024FBF821B930B089578941F92E4
:102DC0001FB61F9211248F939F93AF93BF9380914F
:102DD000460290914702A0914802B09149020196A3
:102DE000A11DB11D8093460290934702A093480213
:102DF000B0934902BF91AF919F918F911F901FBED9
:102E00001F90189587E797E7909301088093000833
:102E100088E19AE00FB6F894A895809360000FBE01
:102E200090936000FFCF88E19AE00FB6F894A895E0
:102E3000809360000FBE90936000FFCF80913C02B2
:102E400008959B01BA0190914E029430E9F48F707D
:102E50008093E9009FEF8091E800915085FD06C0C6
:102E600085ED8A95F1F700009111F5CF8091E8008A
:102E700085FF0AC050E040E0C9010E941B19809103
:102E8000E8008E778093E800089543E050E0BC01AD
:102E900082E00E942117089546E050E0BC0182E0E4
:102EA0000E9421170895CF93DF93EC0148E050E092
:102EB000BC0181E00E94211788E0FE01A4E3B2E09A
:102EC00001900D928A95E1F7DF91CF91089580915D
:102ED0004D02811109C00E94AB1A0E94081B80910B
:102EE000E20084608093E200089510924D020895FC
:102EF0000E942916089560914A0281E0611101C083
:102F000080E00E942016089590914E0281E0943056
:102F100009F080E060914A020E942616089542E07E
:102F200061EC81E00E94271A42E261EC82E00E949B
:102F3000271A90914E0281E0943009F080E0609170
:102F40004A020E941616089580915002833009F4B7
:102F500061C030F48130D1F1823009F49EC008950F
:102F60008A3009F48AC08B3009F46FC0893009F0C7
:102F700050C080914F02813209F04BC080915302C2
:102F800090915402029708F044C08091E800877F36
:102F90008093E8008091E80082FF37C09091F300B1
:102FA0008091F200029731F48091F100813011F0AC
:102FB000863021F48091F10080933C028091E800FA
:102FC0008B778093E8000E945B1A23C080914F02A8
:102FD000813AF9F48091E800877F8093E80080913E
:102FE000530290915402892B61F468E084E392E0EB
:102FF00070E00E946A198091E8008B778093E80066
:10300000089560E090E080E0F3CF80914E0281115E
:10301000C1CF089580914F02813AD9F78091530230
:1030200090915402892BA9F78091E800877F8093C3
:10303000E8008091E80080FFFCCF8091120180932E
:10304000F1008091E8008E77BCCF80914F028132F1
:1030500001F78091530290915402892BD1F680910F
:10306000E800877F8093E8000E945B1A80915102FC
:10307000809312010E94A205089580914F0281322F
:1030800041F68091E800877F8093E8000E945B1AF8
:103090008091520280933D02089580914F02813ABF
:1030A00009F0B7CF8091E800877F8093E800809196
:1030B000E80080FFFCCF80913D02C1CF84B7877FBD
:1030C00084BF0FB6F894A8958091600088618093C2
:1030D0006000109260000FBE80E890E00FB6F89498
:1030E00080936100909361000FBE0E942F16089597
:1030F0000E94AB1A0E94081BE2EEF0E0808184601F
:10310000808378940E94871D08958AE091E00E9450
:103110003E15089580914E02853031F480914E0223
:10312000853019F00E94A91608950E947E1680919C
:103130004C02882399F30E943C16882379F30E945D
:1031400005190E94A205EACF08959A0140915502FF
:10315000509156020E94AD180895492F55274330CB
:10316000510519F168F44130510509F444C0423069
:10317000510509F445C090E080E050E040E025C0F2
:103180004132510549F142325105A9F780E490E0FE
:103190004EEB51E061157105C1F08BE790E043E41F
:1031A00051E06130710589F0E6CF992781309105B2
:1031B00081F0009729F00297F1F6E2ECF0E002C00E
:1031C000E2EFF0E0849190E0AF01F9015183408398
:1031D0000895E6EDF0E0F6CF89E090E048E051E0B8
:1031E0006115710591F389E090E041E251E06130B1
:1031F000710559F3C0CF82E190E041E351E0E5CFA2
:103200008BE390E046EF50E0E0CF80E189BD82E1C2
:1032100089BD09B400FEFDCF8091D8008F7D8093D9
:10322000D8008091E00082608093E0008091E0000F
:1032300081FDFCCF0895AF92BF92CF92DF92FF92B3
:103240000F931F93CF93DF936C01EB018A010E94D0
:103250007A1AF82E811123C00115110539F0F801F1
:1032600080819181C81BD90BC80ED91EB12CA12C0D
:103270002097A9F08091E80085FD22C08091E800A8
:103280008E778093E80001151105A1F0F801808187
:103290009181A80EB91EB182A08285E0F82E8F2DF3
:1032A000DF91CF911F910F91FF90DF90CF90BF9052
:1032B000AF9008950E947A1A8823D1F2F82EEFCFAA
:1032C000F60181916F018093F1002197FFEFAF1A12
:1032D000BF0ACECFFC01809155029091560286170D
:1032E0009707A0F06115710529F49091E8009E7789
:1032F0009093E80090E06115710551F4911108C0B8
:103300008091E80082FF34C080E00895BC01F2CFD4
:1033100080914E028823C1F18530C1F18091E8008F
:1033200083FD30C08091E80082FDEACF8091E80003
:1033300080FFE1CF8091F3002091F200382F6115DA
:10334000710519F02830310558F091E02830310529
:1033500009F090E02091E8002E772093E800CBCF91
:1033600081918093F100615071092F5F3F4FE7CF4A
:1033700080914E02882341F0853041F08091E80031
:1033800083FFBECF81E0089582E0089583E0089531
:10339000FC01809155029091560286179707A0F084
:1033A0006115710529F48091E8008E778093E8001B
:1033B00090E06115710551F4911108C08091E80009
:1033C00082FF35C080E00895BC01F2CF80914E02AB
:1033D0008823C9F18530C9F18091E80083FD31C0AF
:1033E0008091E80082FDEACF8091E80080FFE1CF84
:1033F0008091F3002091F200382F6115710519F0CA
:103400002830310558F091E02830310509F090E07E
:103410008091E8008E778093E800CBCF84918093F1
:10342000F1003196615071092F5F3F4FE6CF8091D7
:103430004E02882341F0853041F08091E80083FFFF
:10344000BDCF81E0089582E0089583E00895982F2C
:10345000973028F08F708093E90081E00895909371
:10346000E900242F762F50E0981731F07091EC008E
:103470002091ED005091F00021FD02C09F5FE8CF48
:103480003091EB003E7F3093EB003091ED003D7FBB
:103490003093ED003091EB0031603093EB0070938E
:1034A000EC002093ED005093F0002091EE0027FDFA
:1034B000E5CF80E0089580914F0287FF13C080918F
:1034C000E80082FF06C08091E8008B778093E800D7
:1034D00004C080914E028111F2CF089580914E0276
:1034E0008823D9F38091E80080FFF8CF8091E8002D
:1034F0008E77ECCF2091E4003091E50095E6A901AC
:103500002091EC00822F817020FF06C08091E8009E
:1035100080FF06C080E008952091E80022FD1AC0D7
:1035200080914E02882389F0853089F08091EB00EC
:1035300085FD0FC02091E4003091E500421753074C
:10354000F9F29150E1F684E0089582E0089583E075
:10355000089581E008950E941A1B0E94221BE0EE4C
:10356000F0E0808181608083E8EDF0E080818F77FA
:10357000808319BCA7EDB0E08C918E7F8C93808105
:103580008F7E808310924D0208950F931F93CF93E7
:10359000DF930E941A1B0E94221BC8EDD0E0888195
:1035A0008F77888388818068888388818F7D8883EE
:1035B00019BC10924E0210924A0210924C021092C4
:1035C0004B0200EE10E0F80180818B7F80838881C0
:1035D0008160888342E060E080E00E94271AE1EE8B
:1035E000F0E080818E7F8083E2EEF0E08081816078
:1035F0008083808188608083F80180818E7F8083D2
:10360000888180618883DF91CF911F910F91089508
:10361000E8EDF0E080818F7E8083E7EDF0E080814F
:103620008160808384E082BF81E080934D020E94AC
:10363000C51A0895E8EDF0E080818E7F80831092B6
:10364000E20008951092DA001092E10008951F92AE
:103650000F920FB60F9211242F933F934F935F93C6
:103660006F937F938F939F93AF93BF93EF93FF934A
:103670008091E10082FF0BC08091E20082FF07C0D1
:103680008091E1008B7F8093E1000E94861D8091F4
:10369000DA0080FF19C08091D80080FF15C08091AA
:1036A000DA008E7F8093DA008091D90080FF96C087
:1036B00080E189BD82E189BD09B400FEFDCF81E0D2
:1036C00080934E020E9467178091E10080FF19C02D
:1036D0008091E20080FF15C08091E2008E7F809390
:1036E000E2008091E20080618093E2008091D80046
:1036F00080628093D80019BC85E080934E020E94BE
:103700007B178091E10084FF2BC08091E20084FF51
:1037100027C080E189BD82E189BD89B5982F91706C
:1037200080FFFBCF8091D8008F7D8093D80080915F
:10373000E1008F7E8093E1008091E2008F7E809394
:10374000E2008091E20081608093E20080914A0271
:10375000882309F449C084E080934E020E948417B4
:103760008091E10083FF29C08091E20083FF25C0A2
:103770008091E100877F8093E10082E080934E0298
:1037800010924A028091E1008E7F8093E100809147
:10379000E2008E7F8093E2008091E200806180935E
:1037A000E20042E060E080E00E94271A8091F00091
:1037B00088608093F0000E947817FF91EF91BF918D
:1037C000AF919F918F917F916F915F914F913F91B9
:1037D0002F910F900FBE0F901F90189519BC10924B
:1037E0004E020E94751770CF8091E30087FD93E031
:1037F00090934E02B3CF1F920F920FB60F921124E7
:103800002F933F934F935F936F937F938F939F93E8
:10381000AF93BF93CF93DF93EF93FF93D091E900E2
:10382000DF708091EC00C82FC17080FDC0E810925D
:10383000E9008091F000877F8093F00078940E94E7
:103840003F1C1092E9008091F00088608093F000A6
:10385000CD2BCF70C093E900FF91EF91DF91CF9115
:10386000BF91AF919F918F917F916F915F914F9198
:103870003F912F910F900FBE0F901F901895AAE2C5
:10388000B0E0E5E4FCE10C94CB1D8FE492E02091E4
:10389000F100FC012193CF01F2E087359F07B9F7D2
:1038A0000E94A4178091E80083FF1EC180914F02FF
:1038B000909150029A3008F017C1E92FF0E0EA56D3
:1038C000F14E0C94B61D803899F0823809F00CC185
:1038D000809153028F70873008F006C18093E90011
:1038E0008091EB0085FB882780F91092E90006C0E3
:1038F00080914B0290914C02911182609091E8006E
:10390000977F9093E8008093F1001092F1008091EE
:10391000E8008E77E5C0882309F4D3C0823009F02F
:10392000E3C0809151028111D6C0809153028F7003
:103930002FEF280F263008F0D7C08093E9002091A0
:10394000EB0020FFC8C0933031F48091EB0080621F
:103950008093EB00C0C09091EB0090619093EB00DE
:1039600021E030E001C0220F8A95EAF72093EA00B7
:103970001092EA008091EB008860EACF8111B4C018
:10398000109151021F778091E3008078812B809302
:10399000E3008091E800877F8093E8000E945B1A33
:1039A0008091E80080FFFCCF8091E30080688093E5
:1039B000E30082E0111183E080934E0295C08058AD
:1039C000823008F091C080915102909152028C3D5A
:1039D00023E09207A1F583E08A838AE289834FB7C7
:1039E000F894DE01139620E03EE051E2E32FF0E090
:1039F00050935700E49120FF03C0E295EF703F5FC2
:103A0000EF708E2F90E0EA30C0F0C7968D939D93B3
:103A10002F5F243159F74FBF8091E800877F809353
:103A2000E8006AE270E0CE0101960E946A19809176
:103A3000E8008B778093E80057C0C096E7CF60918D
:103A4000530270915402AE014F5F5F4F0E94A51860
:103A5000BC01892B09F448C09091E800977F9093AE
:103A6000E80089819A810E94C819E1CF8038E1F588
:103A70008091E800877F8093E80080914A028093DC
:103A8000F10045CF811130C090915102923060F524
:103A90008091E800877F8093E80090934A020E941B
:103AA0005B1A80914A02882311F084E005C080915E
:103AB000E30087FDFACF81E080934E020E948F17CA
:103AC00013C080915102813079F481E0933009F084
:103AD00080E080934C021092E9008091E800877F9B
:103AE0008093E8000E945B1A8091E80083FF0AC07F
:103AF0008091E800877F8093E8008091EB008062EE
:103B00008093EB00AA96E3E00C94E71D0895CF9311
:103B100080914E028823A1F0C091E900CF7090916E
:103B2000EC00892F817090FD80E8C82B1092E9008D
:103B30008091E80083FD0E943F1CCF70C093E90094
:103B4000CF91089597FB072E16F4009407D077FDC8
:103B500009D00E94F31D07FC05D03EF49095819595
:103B60009F4F0895709561957F4F0895EE0FFF1F49
:103B70000590F491E02D09942F923F924F925F921D
:103B80006F927F928F929F92AF92BF92CF92DF926D
:103B9000EF92FF920F931F93CF93DF93CDB7DEB7D2
:103BA000CA1BDB0B0FB6F894DEBF0FBECDBF099466
:103BB0002A88398848885F846E847D848C849B84BD
:103BC000AA84B984C884DF80EE80FD800C811B81CB
:103BD000AA81B981CE0FD11D0FB6F894DEBF0FBEFA
:103BE000CDBFED010895AA1BBB1B51E107C0AA1F61
:103BF000BB1FA617B70710F0A61BB70B881F991F8E
:103C00005A95A9F780959095BC01CD010895FB01C7
:103C1000DC0104C08D910190801921F44150504085
:103C2000C8F7881B990B0895FB01DC0102C00190C5
:103C30000D9241505040D8F70895F999FECF92BDAA
:103C400081BDF89A992780B50895A8E1B0E042E0D7
:103C500050E00C94511E262FF999FECF92BD81BDE4
:103C6000F89A019700B4021639F01FBA20BD0FB6BA
:103C7000F894FA9AF99A0FBE08950396272F0E9496
:103C80002C1E0E942B1E252F0E942C1E242F0C94CC
:103C90002C1E0196272F0E942C1E0C942B1EDC013B
:103CA000CB01FC01F999FECF06C0F2BDE1BDF89A47
:103CB000319600B40D9241505040B8F70895F894F1
:103CC000FFCF85038503D603D60349046504B403F7
:103CD000B4036A04DB04EA04EA04201394132813EF
:103CE000F212F6122C13FA1230133C1306138D1332
:103CF0000A1340130E1344136C1312134813731357
:103D000018134E135613FE123413021338131C13D8
:103D1000521362137C138B13EC1224139B13121592
:103D2000181501150C151E1524152A15631C8B1C5E
:103D3000741D8B1C741DBE1CDF1C741D361D421DA2
:103D4000F801280850011E0A14011E1753174C17BA
:103D5000451701E200E900EA00B500B600B700CD62
:103D6000008301CC008A01920194012102230224E4
:103D7000022502260227022A02B300B4006F007057
:103D8000009F01CB019F02A002818283E200E90033
:103D9000EA00B500B600B700CD008301CC008A016F
:103DA0009201940121022302240225022602270205
:103DB0002A02B300B4006F0070009F01CB019F0284
:103DC000A0028182839091946697C634353600FFB5
:0E3DD0000100010000FFFF0000010001FF00E4
:00000001FF
