:100000000C9499010C94B6010C94B6010C94B601B1
:100010000C94B6010C94B6010C94B6010C94B60184
:100020000C94B6010C94B6010C9409210C94DD21BA
:100030000C94A81B0C94B6010C94B6010C94B60158
:100040000C94B6010C94B6010C94B6010C94B60154
:100050000C94B6010C942F1C0C94B6010C94B601B0
:100060000C94B6010C94B6010C94B6010C94B60134
:100070000C94B6010C94B6010C94B6010C94B60124
:100080000C94B6010C94B6010C94B6010C94B60114
:100090000C94B6010C94B6010C94B6010C94B60104
:1000A0000C94B6010C94B6010C94B601A900AA00F8
:1000B000A900AA00A900AA00A900AA00AC00AE00ED
:1000C000AB001E001F0020002100220023000100C1
:1000D0000100010001000100010001000100010018
:1000E0000100010001000100010001000100010008
:1000F00001000100010001000100010001000100F8
:100100000100010000000000000000002A2B280070
:1001100000000000000000000000000000000029B6
:10012000000000002C1E3420212224342627252EF6
:10013000362D3738271E1F2021222324252633332E
:10014000362E37381F0405060708090A0B0C0D0E5A
:100150000F101112131415161718191A1B1C1D2F26
:100160003130232D350405060708090A0B0C0D0E46
:100170000F101112131415161718191A1B1C1D2F06
:100180003130354C0000000000000000000000008D
:10019000000000000000000000000000000000005F
:1001A00000000000000000007E0F00D4FFFFFFC72A
:1001B0000000007812036B006500790064006500A0
:1001C00063006B00380000001A034D0061007600E8
:1001D00065007200690063006B0030003100390077
:1001E000370000000403090409025B00030100A0BA
:1001F000FA090400000103010100092111010001B5
:1002000022400007058103080001090401000203E0
:1002100000000009211101000122220007058203CC
:100220002000010705030320000109040200010367
:10023000000000092111010001227B000705840351
:100240002000011201000200000008764D3130014B
:1002500000010200010660FF0961A10109621500A9
:1002600026FF009520750881020963150026FF000E
:10027000952075089102C005010902A101850209B6
:1002800001A1000509190129081500250195087526
:100290000181020501093009311581257F9502751B
:1002A00008810609381581257F95017508810605A5
:1002B0000C0A38021581257F950175088106C0C09A
:1002C00005010980A101850319012AB7001501263E
:1002D000B700950175108100C0050C0901A10185C9
:1002E0000419012AA002150126A0029501751081AA
:1002F00000C005010906A101050719E029E715005D
:100300002501950875018102950175088101050790
:10031000190029FF150026FF0095067508810005C4
:10032000081901290595057501910295017503913B
:1003300001C011241FBECFEFDAE0DEBFCDBF11E058
:10034000A0E0B1E0ECE3F9E402C005900D92A03B1F
:10035000B107D9F722E0A0EBB1E001C01D92A436AD
:10036000B207E1F70E94DA100C9448240C940000C4
:1003700084E008958430B8F46330A8F4433098F4EE
:1003800050E093E0699F400D511D1124FA0199E05E
:10039000899FE00DF11D1124EE0FFF1FE454FF4F64
:1003A00085919491089581E090E0089584E0089506
:1003B000843088F461110FC090E0880F991FE1E04C
:1003C000E427E80FF92FF11DEE0FFF1FE455FF4F53
:1003D00085919491089581E090E0089581E00895D9
:1003E00081E008950E94F001089508950E94F501AA
:1003F0000895A5E0B0E0EFEFF1E00C94B423498359
:100400005A833091B70189819A81311119C06623CD
:1004100099F0222389F00E948407182F682F898180
:100420009A810E94510769817A81812F0E94930EDF
:100430002596E3E00C94D0230E946B07182FF3CF8E
:100440000E94840769817A81F1CFFC01262F4081C7
:1004500051816281738184810E94F901089581E054
:100460000895CF93DF93EC0160E00E942502BE0166
:100470000E94F601DF91CF91089508950E944706EA
:100480000E943D022FEF84E39CE021508040904089
:10049000E1F700C0000008950E943E020E94531C34
:1004A00008950E943E020E94641C08950F931F93BA
:1004B000CF93DF938C0161E00E942502EC01B8012B
:1004C0000E94D113811106C080E0DF91CF911F916E
:1004D0000F910895B801CE010E94F2018823A1F383
:1004E000B801CE010E94FD19882371F3B801CE0135
:1004F0000E94D114882341F3B801CE010E946F19E4
:10050000882311F3B801CE010E94411A8823E1F239
:10051000F8018281882361F0C330FCE7DF07E9F04E
:1005200058F4C115ECE7DE07A9F0C130DC47B9F09B
:10053000C8010E94EE01C9CFCB358CE7D807A9F0DE
:10054000CC35ECE7DE0771F0CA35DC4789F70E944D
:10055000D70BEECF0E944C02B7CF0E94DF0B0E9458
:100560005102B2CF0E94CD0BE3CF0E94DB0BE0CF54
:100570000E94851B0E94DF0208950E94E3020E94F0
:100580008A1B0895089581E008950895CF93DF931D
:10059000D82F0E94C302C82F882319F08D2F0E94E4
:1005A000C5028C2FDF91CF9108950895CF93C82F66
:1005B0000E94C2028C2F0E94C602CF91089580E053
:1005C0000E94D60208950E94941A0E94D6020895AD
:1005D000CF930E94941AC82F8091B2018C1779F0A2
:1005E000C093B2010E94141C6093B3017093B401D4
:1005F0008093B5019093B6018C2F0E94D602CF91C3
:100600000895ABE0B0E0E7E0F3E00C94B5234F834E
:10061000588769877A878B8761110E94180B1E8221
:100620001D8285E0FE013796DE01119601900D9244
:100630008A95E1F78C819D81892B61F449815A81EA
:100640006B817C818D819E810E94400A2B96E2E025
:100650000C94D12389819A8189238F3F79F3CE012C
:1006600001960E942F028111E9CFF0CFFC01808119
:1006700091810E94B1070895662329F00E945E11BE
:100680000E94311208950E94B811FACFCF93C82F5B
:100690008823B9F08CEF8C0F813AA8F46C2F8091ED
:1006A0000001909101010E94161B882329F08C2FD4
:1006B0000E94D80A0E94390B8C2F0E94D00A0E94F7
:1006C000390BCF91089580E28C0F883048F4C770C1
:1006D00081E001C0880FCA95EAF70E94FB0AEFCFBC
:1006E000EBE5EC0FE33040F4F0E0E45BFE4F80819B
:1006F00090E00E94BA1AE5CFE8E5EC0FEB3150F438
:10070000F0E0EE0FFF1FEA5EFE4F808191810E94B4
:10071000DF1AD7CF83E38C0F833198F661E08C2FFB
:100720000E943C03CECF882381F19CEF980F913A31
:1007300028F40E94D80A0E94390B089590E2980F7D
:10074000983050F4877091E001C0990F8A95EAF7CC
:10075000892F0E94010BEFCF9BE5980F933028F46F
:1007600090E080E00E94BA1A089598E5980F9B31B6
:1007700028F490E080E00E94DF1A089593E3980F38
:10078000933118F460E00E943C0308951F93CF93C7
:10079000DF93182FEB010E944603209739F4812F35
:1007A0000E949303DF91CF911F9108958FE99FE0FD
:1007B0000197F1F700C000002197EFCF70E060E0F3
:1007C000893311F460E570E00E94C6030895882320
:1007D00021F00E94FB0A0E94390B0895882321F022
:1007E0000E94010B0E94390B0895B0E0A0E0EBEFEE
:1007F000F3E00C94AE236C01D62FC72FFC011281BD
:10080000058102950F700E94F10AE82E8823E9F015
:10081000E12E1123D1F08C2F807F803451F080E2C3
:100820008D0F8830F8F0011104C08C2F807E80324B
:10083000C9F080914C0282FF15C082E00E949C0B9F
:100840000E94F10A91E0E82EE926BC2EB2949FE0C6
:10085000B922FBE0FB15B8F1EB2DF0E0E65BFB4DB8
:100860000C949823E12CF1CF0C2F0F70C07F11F066
:100870000295007F112399F0002359F080E28D0F3B
:10088000883010F0D11107C0802F0E94FB0A0E940F
:10089000390B8D2F63C0802F0E940B0BF8CF8D2F4B
:1008A0000E949303002379F080E28D0F883010F0CE
:1008B000D11104C0802F0E94010B03C0802F0E9421
:1008C000110B0E94390B2B2D2850330B243031058E
:1008D00020F40E94941A0E94D602EE2089F00E9411
:1008E000ED0A80FD0DC0F60112820E94E70A0E9407
:1008F000C506C6010E9407060E94E70A0E94D106AB
:10090000CDB7DEB7E9E00C94CA232C2F2F70F22E5E
:10091000C07FC03219F0F29480EFF822DD2381F01D
:10092000D13009F449C0112309F451C0002309F45E
:1009300048C0F601858180FFACCF8F70858341C0B0
:1009400080914C0282FD15C0112359F0FF2029F03F
:100950008F2D0E94FB0A0E94390B80E00E94460303
:10096000B2CF80E00E949303FF2009F4ACCF8F2D1B
:10097000A2CF112381F0011106C00E941B0B8F2909
:100980000E94E703A0CF0130C1F70E941B0B8F2903
:100990000E94220B98CF011106C00E942F0B8F2DB1
:1009A0000E94EE0390CF013009F48DCF8F2D0E946D
:1009B000EE030E942F0B87CF112329F0063008F099
:1009C00082CF8F2DDDCF053008F07DCFE8CF00231B
:1009D00031F3D93349F4FFEF27EE33E0F1502040F3
:1009E0003040E1F700C000008D2F0E9493036BCFD1
:1009F0008C2F86958695837069F0813009F063CFDE
:100A00008D2F9C2F9370111102C080E090E00E9406
:100A1000DF1A59CF8D2F9C2F9370111102C080E0E7
:100A200090E00E94BA1A4FCF612F8D2F0E943C0395
:100A30004ACF8C2F837079F5111145CF4D2F4295F8
:100A400046954770440F440F8D2F8F70042E01C0C0
:100A5000880F0A94EAF72D2F2071D4FF07C02FE0EA
:100A600030E001C0220F4A95EAF72095C695C69559
:100A7000C370822BC23049F058F4C13019F00E9483
:100A8000A10621CF0E949B061ECF0E94A7061BCF66
:100A90000E94980618CF8695112311F08C2F817033
:100AA000882309F410CF4D2F429546954770440F87
:100AB000440F8D2F8F70042E01C0880F0A94EAF71F
:100AC0002D2F2071D4FF07C02FE030E001C0220F8E
:100AD0004A95EAF72095C695C695C370822BC23019
:100AE00049F058F4C13019F00E94F006ECCE0E9493
:100AF000EA06E9CE0E94F606E6CE0E94B306E3CEF1
:100B0000CF70112329F08C2F0E94C5068D2F38CF6E
:100B10008D2F0E94EE038C2F0E94D106D4CED23F9F
:100B200041F160F4D03FB9F0D13F81F0112309F4D5
:100B300046C00111AECE8C2F8F711FC0D33F01F183
:100B4000D43FA1F780914C0282FD24C08C2F8F717D
:100B5000112311F312C0112341F0053008F0B3CE78
:100B60008C2F8F710E94DE06AECE063008F0ABCE21
:100B7000F7CF8C2F8F711111CFCF0E94C506A3CE56
:100B8000112329F08C2F8F710E94BC069CCE0E94ED
:100B9000B80699CE112349F0CF718C2F0E94C5065B
:100BA00063E08C2F0E947E0B8ECE81E00E949C0B16
:100BB000023008F488CE82E00E949C0B84CE002391
:100BC00059F0D93309F010CF8FEF97EEE3E0815061
:100BD0009040E040E1F706CF8C2F8F719DCF0F93AF
:100BE0001F93CF93DF93EC01688179818A810E9402
:100BF000BC078C010E94FC060E949706B801CE013A
:100C00000E94F503DF91CF911F910F910895CF932B
:100C1000DF93EC018B819C81892B29F0888199815C
:100C200089238F3F51F4DF91CF910895CE010E9427
:100C3000EF05CE010E943102F6CFCE010E9456028E
:100C40008111F4CF0E94F10A882369F38A818823F5
:100C500051F380914C0282FFE6CF82E00E949C0B10
:100C6000E2CF90E080E00E94BA1A90E080E00E941B
:100C7000DF1A0E94180B0E94390B0E944D120E942D
:100C8000311208950E94E00A0E94310608950E94E0
:100C9000080B0E944206089592959F70963091F03D
:100CA00058F4925F9F70923058F4803F19F030F4FE
:100CB000883E30F481E008959A5FF4CF843FD1F309
:100CC00080E00895883EB0F3813FD1F7F3CFFC0177
:100CD00083819481892B29F08081918189238F3FA1
:100CE00011F480E00895808191810E94B1070E94F3
:100CF0004C060895A5E0B0E0E0E8F6E00C94B523DA
:100D00002596E2E00C94D123A6E0B0E0EAE8F6E014
:100D10000C94B5232696E2E00C94D12308950E940A
:100D20008E0608950E948F068093C201089508954B
:100D30000E94920608959091C201892B0E9492060A
:100D400008959091C20189230E949206089590917E
:100D5000C20189270E94920608950E948E06089576
:100D60000E94AD0608950E94B0068093C1010895C7
:100D700080E00E94B306089591E001C0990F8A9522
:100D8000EAF7892F0E94B306089521E030E001C000
:100D9000220F8A95EAF78091C101822B0E94B30647
:100DA000089521E030E001C0220F8A95EAF72095EE
:100DB0008091C10182230E94B306089521E030E0B2
:100DC00001C0220F8A95EAF78091C10182270E9413
:100DD000B30608959091C101892B0E94B30608952E
:100DE0009091C10189230E94B30608959091C10199
:100DF00089270E94B30608950895262F277091E051
:100E000001C0990F2A95EAF723E0769567952A9510
:100E1000E1F7FB01EE0FFF1FE60FF71FE40FF51FD1
:100E200050E040E0682F70E08191DF0111979B0155
:100E3000042E02C0369527950A94E2F72170219579
:100E40002827292328272C934F5F5F4F43305105D4
:100E500059F70895A82FA77023E0969587952A95AE
:100E6000E1F7FC01EE0FFF1FE80FF91FE60FF71F78
:100E700050E040E080E0219130E00A2E02C036953B
:100E800027950A94E2F721703327042E01C0220F20
:100E90000A94EAF7822B4F5F5F4F4330510559F7B1
:100EA0000895282F862F933070F4233058F4622F42
:100EB00070E023E0929F600D711D11244BEB51E017
:100EC0000E94FD0608959C5F9230E0F7622F70E06B
:100ED00048EB51E0F5CF292F933068F4833090F43C
:100EE00090E06BEB71E033E0239F800D911D1124A6
:100EF0000E942A0708952C5F223020F468EB71E0ED
:100F000090E0F6CF80E00895CF92DF92FF920F93AA
:100F10001F93CF93DF936C010091C1018091C201B7
:100F2000082BC3E0D0E010E0FC2EC8010C2E02C05C
:100F3000959587950A94E2F780FD0CC02197A0F75C
:100F4000F12C8F2DDF91CF911F910F91FF90DF90AA
:100F5000CF900895B6018C2F0E94AC0E019771F3CB
:100F6000F0CFCF93DF93EC010E948407BE010E9473
:100F7000AC0EDF91CF9108951F93CF93DF93EB01D8
:100F80009091B701992339F0CB010E94B107DF910D
:100F9000CF911F910895882369F0CB010E948407A7
:100FA000182F682FCE010E945107BE01812F0E9489
:100FB000AC0EEDCFCB010E946B07182FF6CFE1E00E
:100FC000F0E0DF0102C0AA0FBB1F6A95E2F7BD0186
:100FD000DF0102C0AA0FBB1F4A95E2F76A2B01C0CE
:100FE000EE0F2A95EAF7962F9823961302C08E2BC0
:100FF0000895E0958E230895242F462F682F809121
:10100000C1010E94DF070E94B30608951F93CF938A
:10101000DF93C091C30116E08091C4018C1304C01A
:10102000DF91CF911F910895D0E01C9FF0011D9F8B
:10103000F00D1124EB53FE4F408151816281738189
:10104000848195810E9484062196C770E5CF4091E6
:10105000F5015091F6016091F7017091F8018091CE
:10106000F9019091FA010E94840608952091C3012C
:101070009091C40156E0291302C080E0089530E049
:10108000529FF001539FF00D1124EB53FE4F7181DD
:10109000761306C07081781303C07281741304C084
:1010A0002F5F3F4F2770E7CF81E008951F93CF93C5
:1010B000DF938091FA01807F09F04BC08091F701A6
:1010C000882309F446C08091C301C091C4014091B6
:1010D000F5015091F6016091F8017091F901D42F5A
:1010E000D52316E0C817A9F190E061157105A9F1A3
:1010F000DF3F99F1189FF001199FF00D1124DF01D6
:10110000AB53BE4F11962C911197251326C02C91ED
:10111000241323C012962C91129721111EC01396EE
:101120002D913C91261B370B283C3105B0F4809162
:10113000FA018F7080618093FA01E653FE4F80813F
:101140008F708061808385EF91E00E9407060E9486
:101150000608DF91CF911F91089501968770C2CF45
:10116000A1E1B0E0E6EBF8E00C94AB238C0185E064
:10117000F801DE011D9601900D928A95E1F7F801C4
:10118000F28085EFA82E81E0B82E4091F8015091B1
:10119000F9014115510509F45AC19091F5012091C9
:1011A000F601892F82238F3F09F451C1C080D1807D
:1011B00083809480E090F701B401641B750BEE20EE
:1011C00009F4F6C08091FA01382F307F683C710530
:1011D00008F0AFC031117AC0EF2C2D1116C09C1150
:1011E00014C0F11012C08F7080618093FA010E94C8
:1011F0002708C5010E9407068091FA01F80185833E
:101200008E2D6196ECE00C94C72381149104C9F1F2
:101210008C2D8D218F3FA9F181E08F2580FF05C0A6
:101220004F2D6D2D8C2D0E9436088114910459F19B
:101230008C2D8D218F3F39F181E08F25F82FF170B2
:10124000BF2E80FF39C04F2D6D2D8C2D0E9436088A
:10125000A82E811131C0CD86DE868D859E850E94A7
:10126000B107292F22952F70243078F49F702230F7
:10127000A8F09923B9F0F8019581907F99F4EA2CB0
:10128000BFCF80E0CBCF80E0D9CF2A5F2F70223054
:1012900068F0C8010E940706AB2CF1CF992311F02A
:1012A000882369F3805E883050F3F3CF803F38F3B2
:1012B000815F833070F7E3CFFF2009F4A1CF8091E5
:1012C000FA0181608093FA01E12C9ACF2D1105C0BB
:1012D0009C1103C0FF2009F486C0C8010E94670664
:1012E000882319F1FF2009F18091FA01803270F012
:1012F0002091F5013091F60138872F8319869B865E
:101300008A868C87CE0107960E94070686E0F80140
:10131000A5EFB1E001900D928A95E1F70E94560881
:101320000E942708EE24E3946BCFC8010E940706B1
:10133000F9CF311114C0782D998A888AA6016F2DB2
:1013400089890E947A0685EF91E00E94070686E06F
:10135000F50111928A95E9F70E942708B5CF2D1162
:101360000EC09C110CC0F1100AC08583C8010E94F8
:10137000070686E0F50111928A95E9F741CFC80189
:101380000E946706882389F2FF2079F28091FA0192
:10139000803208F4BBCF2091F5013091F6013A83F9
:1013A00029831B829D828C828E83CE010196ACCFD5
:1013B000683C710508F03DC0EF2CFF2009F4B5CF63
:1013C0002D1129C09C1127C08091FA0180FD1AC0FF
:1013D000982F907FB9F08583903F31F0982F907FC0
:1013E000905F8F70892B8583C8010E94070686E075
:1013F000F801A5EFB1E001900D928A95E1F70E9406
:101400002708FECE86E0F801A5EFB1E001900D922D
:101410008A95E1F7F5CEC8010E946706811176CF63
:101420008091FA0181608093FA01C8010E94070649
:10143000E7CE782D998A888AA6016F2D89890E9426
:101440007A0686E0F50111928A95E9F7D8CFFF2058
:1014500009F46BCFC8010E946706E82E882309F4BF
:1014600064CF86E0F801A5EFB1E001900D928A9576
:10147000E1F785EF91E00E9436030E945608BFCF46
:10148000ACE0B0E0E6E4FAE00C94B4234F83588774
:1014900069877A878B879C87CE0107960E94B00860
:1014A0008823B1F08A859B85892B39F04F81588537
:1014B000842F85238F3F09F06CC016E08091C30113
:1014C0009091C401891343C02C96E3E00C94D0237F
:1014D00086E0FE013796DE01119601900D928A9505
:1014E000E1F78A859B85892B41F38F819885892334
:1014F0008F3F19F32091C40130E0C9010196877034
:1015000099274091C3014817190671F40E944706B4
:101510001092C4011092C30186E0E5EFF1E0DF0113
:101520001D928A95E9F7C9CF96E0929FD001939FCB
:10153000B00D1124AB53BE4FFE01319601900D92B8
:101540009A95E1F78093C4010E940608B6CF819F67
:10155000C00111248B539E4F0E94B008882309F4C8
:10156000B3CFE091C3011E9FF0011124EB53FE4F56
:101570004081518162817381848195810E948406BA
:101580008091C30190E00196877099278093C301F1
:1015900095CF69857A858B859C850E9484068DCF41
:1015A000682F80910001909101010E944C1B0895C9
:1015B000682F80910001909101010E944F1B0895B6
:1015C00080910001909101010E94521B0895809129
:1015D000030285958595859508958091030287700E
:1015E000089590910302977081E009F480E00895D6
:1015F00080910E02089590910E02892B80930E0225
:101600000895809590910E02982390930E0208956C
:1016100010920E02089590910D02892B80930D0275
:101620000895809590910D02982390930D0208954E
:1016300010920D02089580910402089508950E9469
:101640001E0B089590914C0292FF08C090910402E5
:10165000981721F0809304020E941F0B0895809137
:101660000402882329F01092040280E00E941F0BDC
:101670000895CF93DF93E0910001F09101018091F3
:101680000E028083E0910001F09101018081909130
:101690000D02892B808390910402992381F0E091BF
:1016A0000001F09101018081892B808380910001EC
:1016B000909101010E94041B81110E942F0BC09187
:1016C0000001D091010148E050E06BEF71E0CE01E4
:1016D0000E94F023892B59F088E0FE01ABEFB1E0C6
:1016E00001900D928A95E1F7CE010E94A11ADF9137
:1016F000CF91089508950E947A0B089590914C021D
:1017000092FF11C098E0899F90011124622B609391
:1017100003020E94C50680910302859585958595F3
:101720000E947B0B08950E94C50608951092030243
:1017300080E00E947B0B089590910302809589239D
:1017400080930302282F277091F4282F082E000C75
:10175000330B9217130659F090914C0292FF07C079
:101760008595859585950E94D1060E94960B0895D2
:1017700090914C0292FB222720F9281769F080FBF8
:1017800092F990934C0280914B0290914C020E94EE
:10179000010C82E00E949C0B089580914C0282FB18
:1017A000882780F991E089270E94B80B089581E08D
:1017B0000E94B80B089580E00E94B80B08956FEF67
:1017C0007FEF90E080E00E943224089590E080E076
:1017D0000E940E24873E9E4F19F40E946B130895B9
:1017E00080E0089582E090E00E940624089583E05E
:1017F00090E00E940624089584E090E00E940E2468
:101800000895BC0184E090E00E9432240895AB0169
:10181000BC018FE090E00E9426240895AB01BC013A
:1018200083E190E00E942624089560E070E0CB01FF
:101830000E940E0C089560E070E0CB010E94070C3E
:101840000E94150C089567EE7EEF90E080E00E9404
:10185000322460E082E090E00E94142460E083E0A3
:1018600090E00E9414241092C20160E074E184E0D0
:1018700090E00E94322460E086E090E00E94142410
:101880006FEF87E090E00E94142440E050E0BA013E
:1018900088E090E00E94262460E08DE090E00E94C5
:1018A000142440E050E0BA0188E190E00E94262430
:1018B00060E087E190E00E94142440E050E0BA012B
:1018C0008CE190E00E94262470E060E080E290E0ED
:1018D0000E94322440E050E0BA0188E190E00E948A
:1018E000262480E00E9484130E94B3130E941B0CE4
:1018F00008950E94230C0895682F8EE090E00E94C6
:1019000014240895A5E0B0E0E8E8FCE00C94B323CB
:101910000E94081C8C0180910F0290911002801788
:101920009107A1F08FEF89838A831B820E94081C94
:101930008160782F9D838C8349815A816B818D8151
:101940000E9401031093100200930F022596E4E019
:101950000C94CF230E94141C60931C0270931D02F0
:1019600080931E0290931F026093180270931902D5
:1019700080931A0290931B0208950E94141C609396
:101980001C0270931D0280931E0290931F026093AD
:101990001402709315028093160290931702089513
:1019A000089508950E94D10C089508950E94D50CC1
:1019B000089581E0089586E99FE00E948A1A0E94B6
:1019C000D00C0E94D20C08950E94D90C08950E9458
:1019D000E40C0895089508950E94EA0C0E94EB0C0F
:1019E00008950E94B50F0E94D50208950E94FF1B22
:1019F0000E94C3130E9477160E9439100E94F10CB6
:101A00000E94D60C0895A5E0B0E0E9E0FDE00C945A
:101A1000AD230E94D90C81110FC00E94820C0E943C
:101A2000961681110E94BD0C0E946F120E94E8025E
:101A30002596EAE00C94C9230E944F1010911102E0
:101A400080E00E94D80F18130EC01091120281E09E
:101A50000E94D80F811307C01091130282E00E94E8
:101A6000D80F1817D1F28091200281FD0E94DE0F5D
:101A70000E94E70CC82E81E1A82E82E0B82E10E06B
:101A8000812F0E94D80F082FF50181915F0108175F
:101A900031F1D02ED826F12CEE24E3948D2D8E2119
:101AA000B1F0CC20A1F0F9821A8391E0802F8E2131
:101AB00009F490E09B830E94081C8160782F9D832D
:101AC0008C8349815A816B818D810E940103F3943B
:101AD000EE0CF3E0FF12E2CFF501319700831F5FB8
:101AE000133071F60E94AA0C9ACF1F93CF93DF9305
:101AF0000E94B10EEC01C11580E5D807F0F5C115C3
:101B000080E4D80708F09CC0C03ED10520F5CD3C4C
:101B1000D10508F082C0C83AD10578F4C53AD1059C
:101B200008F073C0C130D10519F1209709F1C43014
:101B3000D105F0F4D0E0C0E01BC0C13CD105D0F726
:101B4000C85AD0E0CC0FDD1FC15BDE4F0990D881B1
:101B5000C02DD4640DC0C11580E2D80708F0D1C0F3
:101B6000C11581E0D80708F05AC0C83ED10510F76A
:101B7000CE01DF91CF911F910895C03682E5D8073D
:101B800018F5C03482E5D80708F06BC0C03282E592
:101B9000D80708F05FC0C11582E5D80708F497C0E0
:101BA0002C2F2695269580E2289F900111248C2FBA
:101BB0008370C1E0D0E002C0CC0FDD1F8A95E2F750
:101BC000C22BD32BDD68D4CFC03A82E5D80760F4AE
:101BD000C03882E5D80708F459C0CF71D0E0DC2FB7
:101BE000CC27C46FD06AC4CFC03C82E5D80708F4C4
:101BF00062C0C03E82E5D80708F09CCFDC2FCC271E
:101C0000CC27DF71C06FD06AB3CFC55AD0E0CB57B5
:101C1000DE4FC881D0E0D064ABCFD065A9CF8D2F87
:101C20000E94530F182FCE0199270E94B10EC12F89
:101C3000D0E0DC2FCC27CC27DF71C82BD92B98CF55
:101C4000CE0199270E94B10ECC27DF70C82BD92B6B
:101C5000D06A8ECFCF71D0E0DC2FCC27C16FD06A95
:101C600087CF2C2F26952695277080E2289F9001FC
:101C700011248C2F8370C1E0D0E002C0CC0FDD1F97
:101C80008A95E2F7C22BD32BDC6872CF2C2F2695D6
:101C90002695277080E2289F900111248C2F837055
:101CA000C1E0D0E002C0CC0FDD1F8A95E2F7C22B65
:101CB000D32BDA685DCF8C2F8F710E94530FC82F02
:101CC000D0E0DC2FCC27CC27DF71D06251CF8C2F16
:101CD0008F710E94530F55E0D695C7955A95E1F73D
:101CE000CF70D0E0DC2FCC27282F30E084FF05C058
:101CF00044E0220F331F4A95E1F7C22BD32BD06962
:101D000037CF8D2F8F710E94530F182FCE01992737
:101D10000E94B10EC12FD0E0DC2FCC27CC27DF7181
:101D2000C82BD92BD2CF462F672F733028F44330DE
:101D300080F40E947D1808957D3F39F4411109C057
:101D400041E060E00E94891808957C3F11F444232B
:101D5000C1F390E080E008950E94930E0E94750DFB
:101D6000089582389105B9F1B0F48133910509F4F1
:101D70007DC048F48932910509F46DC08A3291051D
:101D800009F47BC008958533910509F45FC0893358
:101D9000910509F10895833E9105D9F138F4803E0B
:101DA000910529F1823E910579F10895863E9105CC
:101DB000D9F1873E910509F43EC0843E910541F575
:101DC00020914C0221FF24C080914B0284FD19C058
:101DD00087EE90E0089520914B02237009F05AC0DD
:101DE00020914C0223FF14C089E290E008952091D5
:101DF0004B0220FD38C030914C0230FF09C024FF57
:101E000043C090E080E0089520914B0222FDF7CF7F
:101E1000089520914B0222FD3AC030914C0230FDD2
:101E200039C024FFF5CFEDCF20914B0223FFF0CF37
:101E300024FDE7CFCDCF20914B0223FD2EC0309162
:101E40004C0231FFEECF84EE90E0089520914B02DA
:101E500025FFDECFC9CF20914B0225FD21C0209167
:101E60004C0223FFD5CF89E390E0D2CF20914B02E3
:101E700026FFCECF8AE290E0089520914B0226FF04
:101E8000C7CF81E390E0089583EE90E0089582EE5D
:101E900090E0089580EE90E0089586EE90E0089539
:101EA00085E390E0089590914B0292FF06C0282FA1
:101EB00028712830F9F4877F846093FF06C0282FAB
:101EC00028712831F1F4877E846120914C0220FF33
:101ED00006C0382F38713830D9F4877F816021FFF0
:101EE00006C0282F28712831D1F4877E816194FDA6
:101EF000877E0895282F24712430F9F68B7F88601F
:101F0000DCCF282F2471243101F78B7E8861DDCF4F
:101F1000382F3171313019F78E7F8860E0CF282F4C
:101F20002171213121F78E7E8861E1CF80E0089513
:101F30000E94DF0B08950E944F102FEF86E791E07B
:101F4000215080409040E1F700C000000E944F10F7
:101F500080E00E94D80F80FF04C00E94980F0E946A
:101F6000531C08950E949B0F08950E94E60B811157
:101F700002C00E94790C0E94F20B809320020E9402
:101F8000FC0B90934C0280934B020E94B20F0E9474
:101F9000F70B0E9498068091C1010E94B006089537
:101FA00008950E94D00F089508950E94D40F0895B7
:101FB000E82FF0E0E05BFD4F8081089508951F93C6
:101FC000CF93DF9328E831E0C1E0D0E0D90150E0C1
:101FD00040E08D918F3F91F0E82FE295EF70F0E0B7
:101FE00011A18F70BE0101C0660F8A95EAF7962F86
:101FF0009095912391A382A1862B82A34F5F5F4F7F
:102000004330510531F72D5F3F4F81E021393807CB
:10201000E9F6DF91CF911F910895CF93DF93AC0143
:10202000A62FB0E083E0689FF0011124E857FE4F2F
:1020300073E081E060E091919F3FC9F0C92FC295A4
:10204000CF70D0E028A130E09F7002C03595279571
:102050009A95E2F720FD0BC0282F622B880F715054
:1020600051F7A40FB51F6C93DF91CF91089520E035
:10207000F4CF0E94DF0F83E0E0E5F2E0DF01982F6C
:102080001D929A95E9F7EDE4F2E0DF011D928A9541
:10209000E9F783E00E948E100E94D10F0895A3E01B
:1020A000B0E0E5E5F0E10C94B42319821A821B82BA
:1020B00060E0CE0101960E940D1061E0CE01019614
:1020C0000E940D1062E0CE0101960E940D1043E0C7
:1020D00050E0BE016F5F7F4F8DE492E00E94F023DD
:1020E00021E0009709F420E0892B49F089819A8149
:1020F000AB8180934D0290934E02A0934F0243E038
:1021000060E572E08DE492E00E948F10182F0E942B
:10211000D50F812F2396E3E00C94D0230895CF921E
:10212000DF92EF92FF920F931F93CF936C017B018D
:10213000042F222349F081E0809323020E94081C8F
:102140009093220280932102C0912302C1110AC000
:10215000C0E08C2FCF911F910F91FF90EF90DF90F7
:10216000CF90089580912102909122020E94201C1C
:10217000059770F310E0A801B601C7010E94F02393
:10218000892B41F0A801B601C7010E94FD231092DE
:102190002302DFCFC0E0FBCF0E94DE1D0E94F60CC1
:1021A0000E94EB1D08950E94F01D0E94030D0E94E5
:1021B0000A1E08950E94A11B0E94C41D0E94DB0CF0
:1021C0000E94CC100E94D3100E94EC0CFBCF809197
:1021D0002A0280FF0DC06091070170E0660F771F33
:1021E0006038710570F56115710569F1862F0895E4
:1021F00081FF07C06091070184E0689FB00111244E
:10220000EFCF6091070182FD0AC0809129028823E7
:10221000A9F02091060160910701821710F088E073
:10222000ECCF869FC001112433E0880F991F3A95A7
:10223000E1F7622F70E00E948423D2CF68E070E063
:10224000D5CF8FE7089581E0089580912A0280FF1D
:102250000CC06091030170E0759567957595679561
:102260006115710549F1862F089581FF06C06091BF
:10227000030170E075956795F3CF6091030182FDCE
:102280000BC0909128029923A1F0609102018091E6
:102290000301961738F0682F70E06038710500F37D
:1022A0008FE70895899FC001112470E00E94842364
:1022B000F4CF61E070E0D7CF81E008958D3C31F438
:1022C0000E94E710819580932E0208958E3C19F4A8
:1022D0000E94E710F8CF8F3C31F40E94E7108195FF
:1022E00080932D020895803D19F40E94E710F8CFE5
:1022F000893D29F40E94251180932F0208958A3D7B
:1023000021F40E9425118195F7CF8B3D31F40E9475
:10231000251181958093300208958C3D19F40E9417
:102320002511F8CF9FE2980F983070F4815D990BDA
:1023300021E030E001C0220F8A95EAF780912C025B
:10234000822B80932C0208958D3D31F480912A02D6
:10235000816080932A0208958E3D21F480912A02A3
:102360008260F7CF8F3DB9F780912A028460F1CF68
:1023700040912D028D3C59F480912E0287FF0DC0B3
:1023800010922E0241110BC01092290208C08E3CFF
:1023900081F480912E0218169CF3442381F08091E1
:1023A0002F0290913002892B09F05AC01092280216
:1023B00008958F3C49F447FFF0CF10922D02809191
:1023C0002E028111ECCFE0CF803D19F41416ACF34E
:1023D000E4CF90912F02893D29F41916F4F610925A
:1023E0002F02DBCF8A3D19F497FFD7CFF8CF90911A
:1023F00030028B3D29F497FFD0CF10923002CDCF21
:102400008C3D19F41916CCF3C8CF9FE2980F983081
:1024100090F4815D990B21E030E0B90102C0660FB4
:10242000771F8A95E2F7CB01809590912C02892342
:1024300080932C02B2CF8D3D31F480912A028E7FA1
:1024400080932A02AACF8E3D21F480912A028D7FAB
:10245000F7CF8F3D09F0A1CF80912A028B7FF0CF7B
:1024600008950E94081C9C0190912D0280912E02DB
:10247000982B21F0309327022093260290912F026F
:1024800080913002982B21F0309325022093240272
:102490008BE292E00E94AC1A089586E0EBE2F2E053
:1024A000DF011D928A95E9F7109229021092280205
:1024B00010922A020895FC01828181110EC083814D
:1024C00081110BC08481811108C091E08581811147
:1024D00001C090E0892F8170089581E0FCCFA6E0D3
:1024E000B0E0E5E7F2E10C94B42386E0EBE2F2E041
:1024F000DE01119601900D928A95E1F710922D025E
:1025000010922E0210922F02109230028B819C8129
:10251000892B89F080912602909127020E94201C2D
:10252000AC01909129029923C9F180910801841787
:10253000150608F440C08D819E81892B91F0809111
:102540002402909125020E94201CAC019091280247
:10255000992309F471C0809104018417150608F4C9
:1025600079C0BE016F5F7F4F8BE292E00E94591BE2
:10257000811105C08BE292E00E945B1281110E94E2
:10258000311286E0FE013196ABE2B2E001900D928D
:102590008A95E1F72696E3E00C94D0232091090177
:1025A0008AE0289F900111242417350720F69F5FA9
:1025B0009093290202C09F3FD1F71B81112359F04C
:1025C0000E94E7109FEF11160CF491E0899F802D77
:1025D000112480932D021C81112359F00E94E710D1
:1025E0009FEF11160CF491E0899F802D11248093A8
:1025F0002E0230912D02332309F49DCF20912E021B
:10260000222309F498CF45EB3403C0011124992308
:1026100059F090932D0245EB2403900111243323AC
:1026200039F030932E0287CF81E080932D02F3CFD3
:1026300081E080932E027FCF209105018AE0289FC0
:10264000900111242417350708F08BCF9F5F9093DA
:10265000280202C09F3FD1F71D81112359F00E942B
:1026600025119FEF11160CF491E0899F802D112404
:1026700080932F021E81112359F00E9425119FEF94
:1026800011160CF491E0899F802D11248093300263
:1026900030912F02332309F464CF2091300222239A
:1026A00009F45FCF45EB3403C0011124992359F09D
:1026B00090932F0245EB240390011124332339F02A
:1026C000309330024ECF81E080932F02F3CF81E030
:1026D0008093300246CF82E290E00E94062483324B
:1026E00089F483E290E00E940624833059F484E266
:1026F00090E00E94062491E0813209F090E0892F59
:102700008170089580E0FCCFCF93C82F6FEF8111C7
:1027100063E282E290E00E9414246FEFC11163E053
:1027200083E290E00E9414246FEFC11161E284E221
:1027300090E00E941424CF910895089585E290E0DE
:102740000E940624682F70E090E080E008950895CC
:10275000CF93C62F0E94A7136C2F85E290E00E94B2
:102760001424CF91089580E00E94841360E070E00B
:10277000CB010E94A8130E94E1170E94E21881E099
:102780000E94841308950E949D130E949E130E942C
:10279000A7130E946B13811102C00E94B313089506
:1027A00008959C01FB018281882351F0A9015757AC
:1027B0004038510530F4822F0E94F21880E00895CD
:1027C00081E008952FEFFC01208308950E94E21319
:1027D000089580E00895B0E0A0E0E1EFF3E10C940B
:1027E000AF23EC01E62E0E94E913811110C0E881AD
:1027F000E150E531B8F4F0E0EA5AFB4D0C9498232F
:1028000019828CE08A836E2DCE010E94B81CCDB750
:10281000DEB7E8E00C94CB2389818230C1F028F444
:10282000813061F08FEF8883EECF833099F0843070
:10283000C9F71A821B821C821D82E5CF0E94141CDC
:102840000E949E236A837B838C839D83DCCF0E94BE
:102850009E13F6CF8A81082F10E06E0193E0C90E17
:10286000D11C9CE1F92EF80E0330110560F6802F83
:102870000E94D80FF60181936F010F5F1F4FF01276
:10288000F3CFC1CF8981823031F0853059F68A810A
:102890000E94D013B8CF6A817B818C819D810E9478
:1028A0009E230E94A813AFCF4B816A8189810E9429
:1028B00045179827892798279D838C83A4CF2C813F
:1028C0003D813227232732274B816A8189810E94EB
:1028D000671799CF0E94E11796CF6E2DCE010E9407
:1028E000E61391CF0E94931889838DCF0E9495188B
:1028F0009827892798279A83898385CF6B8170E0F1
:1029000089819A81AE014C5F5F4F9827892798276C
:102910000E94981878CF6B8170E089819A81AE010E
:102920004C5F5F4F9827892798270E94BD186BCF6F
:102930000E94E21868CF0E943317D6CF6B8170E0F7
:1029400089819A81AE014C5F5F4F9827892798272C
:102950000E94371858CF6B8170E089819A81AE014F
:102960004C5F5F4F9827892798270E945A184BCFB2
:1029700041E08B81811101C040E06A8189810E9420
:10298000831797CF2C813D8132272327322741E0BF
:102990008B81811101C040E06A8189810E94B61754
:1029A00032CFCF93DF93EC01FB018281882309F4BE
:1029B000D2C09E0130572332310508F0B2C00E94C8
:1029C000FC0B90934C0280934B02FE01E150F047C8
:1029D000E232F10520F4E559FB4D0C9498238091E7
:1029E0004B02816080934B0293C080914C028860BF
:1029F00080934C028DC080914B028260F3CF809116
:102A00004B028460EFCF80914B028860EBCF8091C6
:102A10004C028160EDCF80914C028260E9CF8091C1
:102A20004B028061DFCF80914B028062DBCF8091CF
:102A30004B028064D7CF0E94470680914B0280688A
:102A4000D1CF80914B028C60CDCF80914C028360BE
:102A5000CFCF80914B028E7FC5CF80914C02877F74
:102A6000C7CF80914B028D7FBDCF80914B028B7F72
:102A7000B9CF80914B02877FB5CF80914C028E7F7A
:102A8000B7CF80914C028D7FB3CF80914B028F7E68
:102A9000A9CF80914B028F7DA5CF80914B028F7B78
:102AA000A1CF0E94470680914B028F779BCF8091E8
:102AB0004B02837F97CF80914C028C7F99CF80917E
:102AC0004B0282FB992790F921E0922790FB82F933
:102AD00090FB83F987CF80914C02982F909591704D
:102AE0008E7F892B90FB81F983CF90914B02892FA8
:102AF0008F7B96FF806476CF0E94470690914B02B1
:102B0000892F97FB87F980586DCF81E00E947C0C5C
:102B100080914B0290914C020E94010C0E9447064A
:102B200080E0DF91CF91089580E0F0CF90914B024B
:102B3000892F8F7E94FF806155CF90914B02892F12
:102B40008E7F90FF81604ECF90914C02892F877FBE
:102B500093FF88604DCF81E0E4CFB0E0A0E0E3EBED
:102B6000F5E10C94B023E82FF0E0EC5FFE4FD49039
:102B7000282F26952695269530E0F901EC55FE4F35
:102B80000491877010E0082E02C0159507950A94ED
:102B9000E2F701701127F901EC56FE4FE490F12C99
:102BA000082E02C0F594E7940A94E2F791E0E92236
:102BB000FF24F901EC57FE4FC491D0E002C0D59537
:102BC000C7958A95E2F7C170DD270115110519F047
:102BD00081EE0E944603E114F10419F086EE0E9492
:102BE00046038D2D0E94DE03E114F10419F086EEF8
:102BF0000E9493030115110519F081EE0E949303C1
:102C0000CD2B19F08CE20E94DE03CDB7DEB7E7E0F2
:102C10000C94CC23EF92FF920F931F93CF93DF93EB
:102C2000EC01162F0AE08881882309F454C0813012
:102C300009F04EC08981813099F47E0122E0E20ED4
:102C4000F11C8A810E94DE03E7012196812F8150C9
:102C500050F3EFE9FFE03197F1F700C00000F7CF44
:102C6000823041F47E0182E0E80EF11C8A810E94EC
:102C70004603EACF833041F47E01E2E0EE0EF11C20
:102C80008A810E949303E0CF843011F02196DDCF3A
:102C90002A81229690E080E0AE014F5F5F4F205383
:102CA000330B2A30310548F0019778F2EFE9FFE065
:102CB0003197F1F700C00000F7CF089FB001099FDE
:102CC000700D1124C901860F971F2981EA01E4CFF5
:102CD0000E94AD15BACFCDB7DEB7E6E00C94CD2398
:102CE0008FE891E00197F1F700C00000089581E0BE
:102CF0008093320253985B9A52985A9A0E947016A7
:102D00002091320244E352E0FA018E2F841B821795
:102D100008F0089589B183FB882780F94A9904C097
:102D200090E0892B8193F1CF92E0FBCFA4E1B0E05A
:102D3000ECE9F6E10C94AA2310E000E084E0C82E50
:102D4000D12C9DEF992E882483942CEF722E8091A4
:102D50003202181728F0802F6496EDE00C94C623F9
:102D6000E12EF12CE9B1E3FBEE27E0F94A9979C0B5
:102D700080E08E2BD701AC5CBD4FEC919E2F937001
:102D8000981709F46CC0EE0FEE0FE82BEC93EF7080
:102D9000F0E0EF56FE4FC7018D5C9D4F5C018081D6
:102DA000F5019081890F808320E084302CF1F701B8
:102DB000EF5CFD4F80818F5F80830E94081C1B8722
:102DC0007C868D868160782F9F878E87412F5CEF70
:102DD00061E08F850E9401030E94081C188B798A8C
:102DE0001A8A8160782F9C8B8B8B412F5CEF60E07F
:102DF0008C890E94010321E0F50180818D3F2CF533
:102E0000F701EF5CFD4F8081815080830E94081C98
:102E100019839A828B828160782F9D838C83412FC6
:102E20005DEF61E08D810E9401030E94081C1E83FA
:102E30009F8218868160782F9A878987412F5DEF5E
:102E400060E08A850E94010321E0F5018081082E5F
:102E5000000C990BB6010E9484238083022B1F5F14
:102E600076CF82E086CF84E0089550E0440F551F6E
:102E700096E0699F400D511D112492E1899F400DFC
:102E8000511D1124CA01869608950F931F93CF9365
:102E9000DF938430C8F46330B8F44330A8F40E9460
:102EA00035178C010E940624C82FD0E0DC2FCC27D8
:102EB000C80101960E9406249E01282BC901DF91BA
:102EC000CF911F910F91089590E080E0F8CF0F937C
:102ED0001F93CF93DF93122F032F843078F4633046
:102EE00068F4433058F40E943517EC01602F0E94BB
:102EF0001424612FCE0101960E941424DF91CF91FA
:102F00001F910F910895FF920F931F93CF93DF931B
:102F1000F42E843040F5611126C024E0829F8001A8
:102F2000112402591F4F82E090E0442311F090E0F9
:102F300080E0800F911F0E940624C82FD0E0DC2F74
:102F4000CC2783E090E0FF2011F081E090E0800F3B
:102F5000911F0E9406249E01282BC901CDB7DEB720
:102F6000E5E00C94CE2390E080E0F8CF0F931F9320
:102F7000CF93DF93142F022F8430F0F461111CC023
:102F800094E0899FE0011124C259DF4F82E090E074
:102F9000442311F090E080E0632F8C0F9D1F0E946E
:102FA000142483E090E0112311F081E090E0602F81
:102FB0008C0F9D1F0E941424DF91CF911F910F91C0
:102FC0000895FF920F931F93CF93DF9310E000E0DB
:102FD000D0E0C02F1AC00E94B80121E030E0801775
:102FE000110639F034F04F2D6D2F8C2F0E94BA014D
:102FF0009C014F2D6D2F8C2F0E946717F39483E057
:10300000F812E9CFDF5FD33011F1F12CE4CF41E0CA
:1030100060E08C2F0E94D8019C0141E060E08C2F81
:103020000E94B61740E060E08C2F0E94D8019C01FE
:1030300040E060E08C2F0E94B6170F5F1F4F0430F6
:10304000110531F6CDB7DEB7E5E00C94CE230E9432
:10305000D6018017110609F0D4F621E030E041E0F6
:1030600060E08C2F0E94B61721E030E0E1CFEF92B4
:10307000FF920F931F93CF93DF93EC018A017C01A2
:10308000E60EF71ECE018696CE15DF0529F4CDB7E4
:10309000DEB7E6E00C94CD23C834D10540F40E949D
:1030A0000624F80180830F5F1F4F2196EBCFF801B4
:1030B0001082F9CFB0E0A0E0E0E6F8E10C94AF2395
:1030C0007C016A018C01060F171FEC01CE01869668
:1030D000C017D10729F4CDB7DEB7E8E00C94CB23B5
:1030E000C834D10540F4FE01EE19FF09EC0DFD1DB9
:1030F00060810E9414242196E9CF843038F4633033
:1031000028F4433018F40E944517089590E080E0B9
:103110000895843028F4611103C00E948317089534
:1031200090E080E0089580E1089582E893E00895BA
:10313000EF92FF920F931F93CF93DF93EC018A01DD
:103140007C01E60EF71ECE0182589F4FCE15DF059B
:1031500029F4CDB7DEB7E6E00C94CD23C23823E0E6
:10316000D20740F40E940624F80180830F5F1F4FAE
:103170002196E9CFF8011082F9CFB0E0A0E0E3ECAE
:10318000F8E10C94AF237C016A018C01060F171F34
:10319000EC01CE0182589F4FC017D10729F4CDB75B
:1031A000DEB7E8E00C94CB23C23823E0D20740F42A
:1031B000FE01EE19FF09EC0DFD1D60810E94142433
:1031C0002196E7CFCF93DF93CEE7D0E060E0CE014A
:1031D0000E9414242196C11584E0D807B9F7DF9125
:1031E000CF910895A8E0B0E0E8EFF8E10C94AD23AA
:1031F000F82E8FE08F1508F46EC08FEF93E00E94D9
:103200000624811168C00EE710E0F11035C0FE0100
:1032100031966F0188E011928A95E9F77801FFEF06
:10322000EF1AFF0AC8010E94062489831A828823A4
:1032300009F451C08130D1F4580182E0A80EB11CCC
:10324000C7010E9406248A83882309F444C09FEFA3
:10325000980F9330F0F4780193E0E90EF11CC5016A
:103260000E9406248B838823B1F11C8260E0C60192
:103270000E940A168701D2CF011594E0190759F16F
:10328000C8010E940624811101C0FA940F5F1F4FEC
:10329000BCCF7501843051F702E010E07501EFEF0B
:1032A000EE1AFE0AC5010E940624F601E00FF11F86
:1032B0008083882381F08C3741F4E2E0F0E0EC0F6A
:1032C000FD1FE00FF11F1082D1CF0F5F1F4F57017D
:1032D0000730110519F72896EAE00C94C923CF931B
:1032E000DF93EB0186319C4711F50E94F80A9A8121
:1032F000992399F08A7A91E009F490E0909335024D
:10330000811109C089E20E94D00A0E94390B80E035
:10331000DF91CF91089585E3F6CF80913502811139
:1033200004C089E20E94D80AF0CF85E3FBCF81E098
:10333000EFCF0F931F93CF93DF93C42FD22FFC01B6
:1033400082818823C9F0409338020E94081C909320
:1033500037028093360280E28C0F883040F4C770C9
:1033600081E001C0880FCA95EAF70E94E703DF9168
:10337000CF911F910F91089510913802141332C00C
:1033800080913602909137020E94201C883C910562
:1033900048F5C0E2CD0F1D17B9F080E2810F8830EB
:1033A00040F4177081E001C0880F1A95EAF70E9477
:1033B000EE03C83048F481E09D2F977001C0880F5C
:1033C0009A95EAF70E94E703802F0E94DE03C83037
:1033D00070F6D77081E001C0880FDA95EAF70E9495
:1033E000EE03C5CF80E28C0F883008F6C77081E00D
:1033F00001C0880FCA95EAF7F2CF0F93DB0188511D
:103400009C4787309105A0F5FC01E357FB4D0C94D8
:10341000982306E221EE41EE6AE17CE7CD010E94AD
:10342000991980E00F91089507E225EE45EE6BE1D2
:103430007CE7F4CF06E221EE40EE68E17CE7EECFD8
:1034400007E225EE44EE69E17CE7E8CF06E221EEF3
:1034500042EE6CE17CE7E2CF07E225EE46EE6DE15D
:103460007CE7DCCF08E221E045EE6EE17CE7D6CFD9
:1034700012968C91882319F010923802D3CF81E0F4
:10348000D1CF1F93CF93DF9387372CE7920759F063
:10349000C1E088379C47E1F4FB01C281CC2371F184
:1034A0000E94841A06C0FB01C281CC23B1F00E94A5
:1034B000811A0E94C5060E94871AD82F0E94841A7A
:1034C000C82F0E94811A4D2F6C2F0E94FC07C0E06C
:1034D0008C2FDF91CF911F9108950E94811A0E9435
:1034E000D1060E94871A182F0E94841AD82F0E9492
:1034F000811A412F6D2F0E94FC07EACF0E94841A87
:10350000EECF80910C01089580910B010895809178
:103510000A0108959093B1018093B00108959093AA
:103520003E0280933D020895E0913D02F0913E02FB
:10353000309729F00190F081E02D0995089580E001
:103540000895E0913D02F0913E02309721F0028013
:10355000F381E02D09950895E0913D02F0913E023E
:10356000309739F022E0DC012C930480F581E02DC6
:1035700009950895A3E0B0E0E0ECFAE10C94B523DE
:1035800020913B0230913C0228173907A1F090931B
:103590003C0280933B02E0913D02F0913E02309765
:1035A00051F023E029839B838A830680F781E02DF5
:1035B000CE01019609952396E2E00C94D123A3E075
:1035C000B0E0E5EEFAE10C94B52320913902309198
:1035D0003A0228173907A1F090933A0280933902F2
:1035E000E0913D02F0913E02309751F024E02983B2
:1035F0009B838A830680F781E02DCE010196099591
:103600002396E2E00C94D1239C012E5F3F4FAC0146
:10361000485F5F4F80E02417350709F40895F901EA
:1036200091919F019923B9F38F5FF5CF662349F0FC
:10363000FC01329608962191261729F0E817F90720
:10364000D1F780E0089581E008959C01FC01329655
:103650009FEF80E04191461751F09F3F19F44111CF
:1036600001C0982F8F5F8630A9F79F3F09F4089516
:10367000290F311D97FD3A95F90162830895FC01E8
:10368000329608962191261303C0DF0111971C92F0
:10369000E817F907B9F708950E94251B08950E94BD
:1036A0003F1B0895029626E0FC0111922A95E9F746
:1036B000089546E050E00E94F02321E0892B09F4B0
:1036C00020E0822F089508950E94631B08958111C0
:1036D00006C081E080933F020E94641B089582E04F
:1036E000F9CF83E080933F020E94641B08950E94FB
:1036F000671B089581E080933F020E94641B089538
:103700000E947A1B0895089508950E94841B0895CD
:10371000089508950E94831B0895CF930E94881BEB
:103720000E944F100E94891BC0E08C2F0E94D80F6E
:10373000811105C0CF5FC330C1F7CF91089581E0FB
:10374000FCCF85B7806885BF85B7806885BF089541
:103750001F921FB61F9211248F939F93AF93BF9315
:1037600080914002811113C08091530290915402C4
:10377000A0915502B09156024196A11DB11D8093B2
:10378000530290935402A0935502B0935602BF91F6
:10379000AF919F918F911F901FBE1F9018958091A0
:1037A0005B02843031F10E94B8021092400288E13D
:1037B00090E020E40FB6F894A895809360000FBEC7
:1037C0002093600083B7817F846083BF83B781606B
:1037D00083BF7894889583B78E7F83BF0FB6F894A4
:1037E000A8958091600088618093600010926000CD
:1037F0000FBE08950E9447060E94BD02089582E010
:1038000084BD93E095BD9AEF97BD80936E000895B7
:103810002FB7F8948091530290915402A0915502D1
:10382000B09156022FBF08952FB7F89460915302BC
:103830007091540280915502909156022FBF0895C5
:103840009C014FB7F8948091530290915402A0913B
:103850005502B09156024FBF821B930B0895789486
:103860001F921FB61F9211248F939F93AF93BF9304
:103870008091530290915402A0915502B09156024A
:103880000196A11DB11D8093530290935402A09301
:103890005502B0935602BF91AF919F918F911F90A7
:1038A0001FBE1F90189587E797E7909301088093B4
:1038B000000888E19AE00FB6F894A895809360001C
:1038C0000FBE90936000FFCF88E19AE00FB6F894A6
:1038D000A895809360000FBE90936000FFCF809109
:1038E000490208959B01BA0190915B029430E9F47A
:1038F0008F708093E9009FEF8091E800915085FDE3
:1039000006C085ED8A95F1F700009111F5CF809101
:10391000E80085FF0AC050E040E0C9010E94AE1EE9
:103920008091E8008E778093E800089543E050E0AE
:10393000BC0184E00E94721C089546E050E0BC0186
:1039400084E00E94721C0895CF93DF93EC0148E05D
:1039500050E0BC0181E00E94721C88E0FE01A1E4FD
:10396000B2E001900D928A95E1F7DF91CF91089531
:10397000603231F440E250E0BC0182E00E94721CEF
:10398000089580915A02811109C00E948D200E94E1
:10399000EA208091E20084608093E2000895109212
:1039A0005A0208950E947A1B08956091570281E09F
:1039B000611101C080E00E94711B089590915B022B
:1039C00081E0943009F080E0609157020E94771BFB
:1039D000089542E061EC81E00E94092042E261EC3E
:1039E00084E00E94092042E261EC82E00E9409200A
:1039F00042E260EC83E00E94092090915B0281E04A
:103A0000943009F080E0609157020E94671B08958E
:103A100080915D02833009F463C030F48130E1F1BC
:103A2000823009F4A0C008958A3009F48CC08B302C
:103A300009F471C0893009F052C080915C02813272
:103A400009F04DC08091600290916102009719F0D9
:103A5000029709F044C08091E800877F8093E800D6
:103A60008091E80082FF37C09091F3008091F200CE
:103A7000029731F48091F100813011F0863021F409
:103A80008091F100809349028091E8008B778093C8
:103A9000E8000E943D2023C080915C02813AF9F445
:103AA0008091E800877F8093E80080916002909188
:103AB0006102892B61F468E081E492E070E00E9489
:103AC0004C1F8091E8008B778093E800089560E0B8
:103AD00090E080E0F3CF80915B028111C1CF089527
:103AE00080915C02813AD9F78091600290916102E5
:103AF000892BA9F78091E800877F8093E800809167
:103B0000E80080FFFCCF809115018093F100809147
:103B1000E8008E77BCCF80915C02813201F7809102
:103B2000600290916102892BD1F68091E800877F35
:103B30008093E8000E943D2080915E0280931501F1
:103B40000E944706089580915C02813241F680917F
:103B5000E800877F8093E8000E943D2080915F020B
:103B600080934A02089580915C02813A09F0B7CFB0
:103B70008091E800877F8093E8008091E80080FFD3
:103B8000FCCF80914A02C1CF84B7877F84BF0FB634
:103B9000F894A895809160008861809360001092ED
:103BA00060000FBE80E890E00FB6F894809361004B
:103BB000909361000FBE0E94801B08950E948D208B
:103BC0000E94EA20E2EEF0E08081846080837894B5
:103BD0000E94692308958DE091E00E948F1A089554
:103BE00080915B02853031F480915B02853019F061
:103BF0000E94FA1B08950E94CF1B809159028823CE
:103C000099F30E948D1B882379F30E94981E0E94CD
:103C10004706EACFA0E2B0E0E0E1FEE10C94B52374
:103C200080915B02843009F583E08093E900809104
:103C3000E80082FF1AC08091E80090E085FF09C08B
:103C400050E040E060E270E0CE0101960E94FD1E6F
:103C500091E08091E8008B778093E800992329F028
:103C600060E2CE0101960E94EB13A096E2E00C9474
:103C7000D1239A0140916202509163020E94411E39
:103C80000895492F55274330510521F168F44130FB
:103C9000510509F443C04230510509F444C090E095
:103CA00080E050E040E026C04132510551F14232FF
:103CB0005105A9F76330710590F7FB01EE0FFF1F67
:103CC000EC55FE4F408151816F557E4FFB01808145
:103CD00090E010C099278130910581F0009729F07C
:103CE0000297E9F6E4EBF1E002C0E4EEF1E0849142
:103CF00090E0AF01F901518340830895E8ECF1E0D1
:103D0000F6CF6330710558F6660F771FFB01E65555
:103D1000FE4F4081518189E090E0ECCF82E190E05C
:103D200043E452E0E7CF8BE590E048EE51E0E2CF8C
:103D300080E189BD82E189BD09B400FEFDCF80919B
:103D4000D8008F7D8093D8008091E00082608093BE
:103D5000E0008091E00081FDFCCF0895AF92BF921A
:103D6000CF92DF92FF920F931F93CF93DF936C015B
:103D7000EB018A010E945C20F82E811123C00115FD
:103D8000110539F0F80180819181C81BD90BC80E4B
:103D9000D91EB12CA12C2097A9F08091E80085FDB7
:103DA00022C08091E8008E778093E800011511050C
:103DB000A1F0F80180819181A80EB91EB182A08284
:103DC00085E0F82E8F2DDF91CF911F910F91FF90FD
:103DD000DF90CF90BF90AF9008950E945C20882321
:103DE000D1F2F82EEFCFF60181916F018093F100AF
:103DF0002197FFEFAF1ABF0ACECFAF92BF92CF92FB
:103E0000DF92FF920F931F93CF93DF936C01EB012F
:103E10008A010E945C20F82E811123C00115110532
:103E200039F0F80180819181C81BD90BC80ED91EC9
:103E3000B12CA12C2097A9F08091E80085FD22C02B
:103E40008091E8008B778093E80001151105A1F0BF
:103E5000F80180819181A80EB91EB182A08285E00F
:103E6000F82E8F2DDF91CF911F910F91FF90DF9052
:103E7000CF90BF90AF9008950E945C208823D1F22C
:103E8000F82EEFCF8091F100F60181936F01219719
:103E9000FFEFAF1ABF0ACECFFC0180916202909172
:103EA000630286179707A0F06115710529F49091B8
:103EB000E8009E779093E80090E06115710551F459
:103EC000911108C08091E80082FF34C080E008951D
:103ED000BC01F2CF80915B028823C1F18530C1F132
:103EE0008091E80083FD30C08091E80082FDEACF38
:103EF0008091E80080FFE1CF8091F3002091F200F3
:103F0000382F6115710519F02830310558F091E00E
:103F10002830310509F090E02091E8002E772093B9
:103F2000E800CBCF81918093F100615071092F5F40
:103F30003F4FE7CF80915B02882341F0853041F00D
:103F40008091E80083FFBECF81E0089582E008956C
:103F500083E00895FC0180916202909163028617CC
:103F60009707A0F06115710529F48091E8008E771C
:103F70008093E80090E06115710551F4911108C03B
:103F80008091E80082FF35C080E00895BC01F2CF47
:103F900080915B028823C9F18530C9F18091E800E6
:103FA00083FD31C08091E80082FDEACF8091E80076
:103FB00080FFE1CF8091F3002091F200382F61154E
:103FC000710519F02830310558F091E0283031059D
:103FD00009F090E08091E8008E778093E800CBCFE5
:103FE00084918093F1003196615071092F5F3F4FAA
:103FF000E6CF80915B02882341F0853041F08091CB
:10400000E80083FFBDCF81E0089582E0089583E05A
:104010000895982F973028F08F708093E90081E001
:1040200008959093E900242F762F50E0981731F0EF
:104030007091EC002091ED005091F00021FD02C044
:104040009F5FE8CF3091EB003E7F3093EB003091E3
:10405000ED003D7F3093ED003091EB003160309307
:10406000EB007093EC002093ED005093F000209152
:10407000EE0027FDE5CF80E0089580915C0287FF88
:1040800013C08091E80082FF06C08091E8008B7722
:104090008093E80004C080915B028111F2CF089503
:1040A00080915B028823D9F38091E80080FFF8CFEC
:1040B0008091E8008E77ECCF2091E4003091E5000C
:1040C00095E6A9012091EC00822F817020FF06C0A7
:1040D0008091E80080FF06C080E008952091E8000C
:1040E00022FD1AC080915B02882389F0853089F017
:1040F0008091EB0085FD0FC02091E4003091E50038
:1041000042175307F9F29150E1F684E0089582E0F6
:10411000089583E0089581E008950E94FC200E94A4
:104120000421E0EEF0E0808181608083E8EDF0E042
:1041300080818F77808319BCA7EDB0E08C918E7F52
:104140008C9380818F7E808310925A0208950F9302
:104150001F93CF93DF930E94FC200E940421C8ED9F
:10416000D0E088818F778883888180688883888180
:104170008F7D888319BC10925B02109257021092B7
:1041800059021092580200EE10E0F80180818B7FF6
:10419000808388818160888342E060E080E00E94C3
:1041A0000920E1EEF0E080818E7F8083E2EEF0E096
:1041B000808181608083808188608083F801808134
:1041C0008E7F8083888180618883DF91CF911F916A
:1041D0000F910895E8EDF0E080818F7E8083E7ED18
:1041E000F0E080818160808384E082BF81E0809301
:1041F0005A020E94A7200895E8EDF0E080818E7FAA
:1042000080831092E20008951092DA001092E1008B
:1042100008951F920F920FB60F9211242F933F9380
:104220004F935F936F937F938F939F93AF93BF93BE
:10423000EF93FF938091E10082FF0BC08091E20039
:1042400082FF07C08091E1008B7F8093E1000E9494
:1042500068238091DA0080FF19C08091D80080FF28
:1042600015C08091DA008E7F8093DA008091D900AA
:1042700080FF96C080E189BD82E189BD09B400FE5E
:10428000FDCF81E080935B020E94C11C8091E10020
:1042900080FF19C08091E20080FF15C08091E2008C
:1042A0008E7F8093E2008091E20080618093E20043
:1042B0008091D80080628093D80019BC85E08093FB
:1042C0005B020E94D51C8091E10084FF2BC080918D
:1042D000E20084FF27C080E189BD82E189BD89B504
:1042E000982F917080FFFBCF8091D8008F7D8093B5
:1042F000D8008091E1008F7E8093E1008091E20000
:104300008F7E8093E2008091E20081608093E200E2
:1043100080915702882309F449C084E080935B02AE
:104320000E94DE1C8091E10083FF29C08091E200A1
:1043300083FF25C08091E100877F8093E10082E0C8
:1043400080935B02109257028091E1008E7F8093F0
:10435000E1008091E2008E7F8093E2008091E20094
:1043600080618093E20042E060E080E00E940920EA
:104370008091F00088608093F0000E94D21CFF9131
:10438000EF91BF91AF919F918F917F916F915F91CD
:104390004F913F912F910F900FBE0F901F90189546
:1043A00019BC10925B020E94CF1C70CF8091E30079
:1043B00087FD93E090935B02B3CF1F920F920FB6ED
:1043C0000F9211242F933F934F935F936F937F939B
:1043D0008F939F93AF93BF93CF93DF93EF93FF930D
:1043E000D091E900DF708091EC00C82FC17080FD92
:1043F000C0E81092E9008091F000877F8093F00080
:1044000078940E9421221092E9008091F000886047
:104410008093F000CD2BCF70C093E900FF91EF9116
:10442000DF91CF91BF91AF919F918F917F916F91CC
:104430005F914F913F912F910F900FBE0F901F9062
:104440001895AAE2B0E0E7E2F2E20C94B4238CE51E
:1044500092E02091F100FC012193CF01F2E084363B
:104460009F07B9F70E94081D8091E80083FF1EC1D5
:1044700080915C0290915D029A3008F017C1E92F9B
:10448000F0E0EC56FB4D0C949823803899F082387C
:1044900009F00CC1809160028F70873008F006C16E
:1044A0008093E9008091EB0085FB882780F91092CA
:1044B000E90006C0809158029091590291118260E2
:1044C0009091E800977F9093E8008093F10010921C
:1044D000F1008091E8008E77E5C0882309F4D3C00D
:1044E000823009F0E3C080915E028111D6C08091D4
:1044F00060028F702FEF280F263008F0D7C080930E
:10450000E9002091EB0020FFC8C0933031F4809186
:10451000EB0080628093EB00C0C09091EB00906153
:104520009093EB0021E030E001C0220F8A95EAF77A
:104530002093EA001092EA008091EB008860EACFB5
:104540008111B4C010915E021F778091E3008078E2
:10455000812B8093E3008091E800877F8093E800BF
:104560000E943D208091E80080FFFCCF8091E30015
:1045700080688093E30082E0111183E080935B0206
:1045800095C08058823008F091C080915E02909171
:104590005F028C3D23E09207A1F583E08A838AE2E3
:1045A00089834FB7F894DE01139620E03EE051E294
:1045B000E32FF0E050935700E49120FF03C0E29511
:1045C000EF703F5FEF708E2F90E0EA30C0F0C7963B
:1045D0008D939D932F5F243159F74FBF8091E80051
:1045E000877F8093E8006AE270E0CE0101960E9426
:1045F0004C1F8091E8008B778093E80057C0C096ED
:10460000E7CF6091600270916102AE014F5F5F4F32
:104610000E94391EBC01892B09F448C09091E80022
:10462000977F9093E80089819A810E94AA1FE1CF29
:104630008038E1F58091E800877F8093E8008091E1
:1046400057028093F10045CF811130C090915E02F6
:10465000923060F58091E800877F8093E800909326
:1046600057020E943D2080915702882311F084E078
:1046700005C08091E30087FDFACF81E080935B0263
:104680000E94E91C13C080915E02813079F481E0C0
:10469000933009F080E0809359021092E9008091F4
:1046A000E800877F8093E8000E943D208091E80029
:1046B00083FF0AC08091E800877F8093E8008091A3
:1046C000EB0080628093EB00AA96E3E00C94D02389
:1046D0000895CF9380915B028823A1F0C091E900F7
:1046E000CF709091EC00892F817090FD80E8C82BED
:1046F0001092E9008091E80083FD0E942122CF7092
:10470000C093E900CF91089597FB072E16F400940B
:1047100007D077FD09D00E94DC2307FC05D03EF4CA
:10472000909581959F4F0895709561957F4F08955D
:10473000EE0FFF1F0590F491E02D0994692796274D
:10474000692778278727782708952F923F924F92DD
:104750005F926F927F928F929F92AF92BF92CF9211
:10476000DF92EF92FF920F931F93CF93DF93CDB71A
:10477000DEB7CA1BDB0B0FB6F894DEBF0FBECDBF92
:1047800009942A88398848885F846E847D848C8463
:104790009B84AA84B984C884DF80EE80FD800C816C
:1047A0001B81AA81B981CE0FD11D0FB6F894DEBF4F
:1047B0000FBECDBFED010895AA1BBB1B51E107C081
:1047C000AA1FBB1FA617B70710F0A61BB70B881FA1
:1047D000991F5A95A9F780959095BC01CD01089530
:1047E000FB01DC0104C08D910190801921F441503E
:1047F0005040C8F7881B990B0895FB01DC0102C0EB
:1048000001900D9241505040D8F70895F999FECF8C
:1048100092BD81BDF89A992780B50895A8E1B0E0CE
:1048200042E050E00C943A24262FF999FECF92BD35
:1048300081BDF89A019700B4021639F01FBA20BD65
:104840000FB6F894FA9AF99A0FBE08950396272F97
:104850000E9415240E941424252F0E941524242F21
:104860000C9415240196272F0E9415240C941424CF
:10487000DC01CB01FC01F999FECF06C0F2BDE1BD20
:10488000F89A319600B40D9241505040B8F708950F
:10489000F894FFCF3404340485048504F804140527
:1048A00063046304190580058F058F0500140C143B
:1048B000421454145F146A146D146D146D141214A0
:1048C0001214721476147E148B1498149B149E1474
:1048D000AB14B814C21429159D153115FB14FF141F
:1048E00035150315391545150F1596151315491569
:1048F00017154D1575151B1551157C1521155715D7
:104900005F1507153D150B15411525155B156B1525
:1049100085159415F5142D15A4151A1A201A091ABF
:10492000141A261A2C1A321A45226D2256236D2289
:0C4930005623A022C12256231823242362
:10493C000502280850011E0A14010302016F1CA471
:10494C001C9D1C961C01E200E900EA00B500B600B3
:10495C00B700CD008301CC008A01920194012102A1
:10496C00230224022502260227022A02B300B400E5
:10497C006F0070009F01CB019F02A002818283E235
:10498C0000E900EA00B500B600B700CD008301CC09
:10499C00008A01920194012102230224022502269D
:1049AC000227022A02B300B4006F0070009F01CBF3
:1049BC00019F02A0028182839091946697C6343540
:1049CC003600FF0100010000FFFF0000010001FFA5
:1049DC000040227BF20255027702FA0113023302E5
:00000001FF
